:100000000C9481000C94A9000C94A9000C942E0C63
:100010000C942E0C0C942E0C0C94A9000C94740AC5
:100020000C94A9000C94A9000C94A9000C94720BD8
:100030000C94A9000C94A9000C94A9000C94A9009C
:100040000C94280B0C94A9000C94F60A0C94D00A7A
:100050000C94A9000C94A9000C94A9000C94A9007C
:100060000C94380C0C94A9004E414E494E495459F9
:10007000494E46CDCCCC3D0AD7233C17B7D1387773
:10008000CC2B329595E6241FB14F0A000020410089
:1000900000C84200401C4620BCBE4CCA1B0E5AAED3
:1000A000C59D7400000000240027002A0000000005
:1000B00000230026002900000000080002010000C3
:1000C0000304070000000000000000010204081003
:1000D00020408001020408102001020408102000C2
:1000E000000000250028002B00040404040404047C
:1000F0000402020202020203030303030302530D7C
:10010000611811241FBECFEFD8E0DEBFCDBF14E0D1
:10011000A0E0B1E0E6EBFDE302C005900D92AA3F3E
:10012000B107D9F726E0AAEFB4E001C01D92AB39C0
:10013000B207E1F710E0C0E8D0E004C02197FE016B
:100140000E949D1CCF37D107C9F70E94C10D0C94A6
:10015000CE1E0C9400000895AF92BF92CF92DF9212
:10016000EF92FF920F931F93CF93DF936C017B016C
:100170008B01040F151FEB015E01AE18BF08C017FD
:10018000D10759F06991D601ED91FC910190F08170
:10019000E02DC6010995892B79F7C501DF91CF9133
:1001A0001F910F91FF90EF90DF90CF90BF90AF9095
:1001B0000895FC01538D448D252F30E0842F90E06D
:1001C000821B930B541710F0CF9608950197089552
:1001D000FC01918D828D981761F0A28DAE0FBF2F1B
:1001E000B11D5D968C91928D9F5F9F73928F90E071
:1001F00008958FEF9FEF0895FC01918D828D9817E0
:1002000031F0828DE80FF11D858D90E008958FEF1C
:100210009FEF0895FC01918D228D892F90E0805CE5
:100220009F4F821B91098F739927089589EA95E062
:100230000E940A0121E0892B09F420E0822F089511
:1002400080E090E0892B29F00E94160181110C9426
:1002500000000895FC01A48DA80FB92FB11DA35A69
:10026000BF4F2C91848D90E001968F739927848FD6
:10027000A689B7892C93A089B1898C9183708064F9
:100280008C93938D848D981306C00288F389E02D9A
:1002900080818F7D80830895EF92FF920F931F934B
:1002A000CF93DF93EC0181E0888F9B8D8C8D981329
:1002B0001AC0E889F989808185FF15C09FB7F89435
:1002C000EE89FF896083E889F98980818370806481
:1002D00080839FBF81E090E0DF91CF911F910F91CC
:1002E000FF90EF900895F62E0B8D10E00F5F1F4FDB
:1002F0000F731127E02E8C8D8E110CC00FB607FCEA
:10030000FACFE889F989808185FFF5CFCE010E9477
:100310002A01F1CFEB8DEC0FFD2FF11DE35AFF4FBA
:10032000F0829FB7F8940B8FEA89FB898081806205
:10033000CFCFCF93DF93EC01888D8823B9F0AA89C2
:10034000BB89E889F9898C9185FD03C0808186FD90
:100350000DC00FB607FCF7CF8C9185FFF2CF8081DF
:1003600085FFEDCFCE010E942A01E9CFDF91CF9129
:100370000895833081F028F4813099F08230A9F01B
:1003800008958730A9F08830C9F08430B1F48091A5
:1003900080008F7D03C0809180008F7780938000E4
:1003A000089584B58F7784BD089584B58F7DFBCF84
:1003B0008091B0008F778093B00008958091B00055
:1003C0008F7DF9CFCF93DF93282F30E0F901E954E7
:1003D000FF4F8491F901E553FF4FD491F901E751A3
:1003E000FF4FC491CC23A1F081110E94B901EC2FE1
:1003F000F0E0EE0FFF1FE355FF4FA591B491EC9194
:10040000ED2381E090E009F480E0DF91CF91089541
:1004100080E090E0FACF1F93CF93DF93282F30E056
:10042000F901E954FF4F8491F901E553FF4FD4914D
:10043000F901E751FF4FC491CC23A9F0162F811188
:100440000E94B901EC2FF0E0EE0FFF1FE152FF4FC9
:10045000A591B4918FB7F894EC91111108C0D09583
:10046000DE23DC938FBFDF91CF911F910895DE2BA8
:10047000F8CF9091060189130BC0EDEFF0E0E49105
:100480009FEF90930601E13049F028F0E23061F0EF
:1004900060E00C940B0210926E00FACF90916F0006
:1004A0009D7F90936F00F4CF909170009D7F90930B
:1004B000700091E09093B0009091B100987F9460AB
:1004C0009093B1001092B300E3CFCF93DF9390E00D
:1004D000FC01E553FF4F249187519F4FFC0184910C
:1004E0008823C9F090E0880F991FFC01ED55FF4F5C
:1004F000A591B491FC01E152FF4FC591D4916111D6
:100500000DC09FB7F8948C91209582238C9388819D
:10051000282328839FBFDF91CF910895623051F443
:100520009FB7F8943C91822F809583238C93E88128
:100530002E2BEFCF8FB7F894EC912E2B2C938FBFEF
:10054000EACF4F925F926F927F928F929F92AF927B
:10055000BF92CF92DF92EF92FF920F931F93CF93B0
:10056000DF9300D000D01F92CDB7DEB78C012A01F7
:100570003B01809106018C30C9F08F3F09F47FC0A8
:100580000F900F900F900F900F90DF91CF911F91D0
:100590000F91FF90EF90DF90CF90BF90AF909F9022
:1005A0008F907F906F905F904F900895EDEFF0E007
:1005B00084918D8387FDE4CF61E08CE00E94650229
:1005C0008D81882321F09D81923009F05CC1480122
:1005D000B12CA12C60E072E18AE790E0A5019801BE
:1005E0000E943D1B29833A834B835C8369017A0116
:1005F00081E0C81AD108E108F1089FEFC916D104BB
:10060000E104F10409F00CF413C160E472E48FE03A
:1006100090E0A50198010E943D1B69017A0181E0EB
:10062000C81AD108E108F1089D81923009F098C0FC
:100630008FEFC816D104E104F10409F00CF4DDC118
:1006400060E970ED83E090E0A50198010E943D1BF8
:1006500069017A0191E0C91AD108E108F1088FEF28
:10066000C816D104E104F10411F00CF0A3C183E039
:100670009091B100987F892B8093B100E1C08CE00C
:1006800080930601EDEFF0E094919D839F3F09F484
:1006900077CF913029F158F0923009F43FC08D8125
:1006A00087FD6ECF61E08CE00E9465028CCF14BCA8
:1006B00015BC84B5826084BD85B5816085BDE5EFDC
:1006C000F0E0E491F0E0EE0FFF1FE152FF4F859163
:1006D0009491E7EDF0E0E491E0939C051D826CCFEE
:1006E0001092800010928100809181008860809338
:1006F000810080918100816080938100E5EFF0E0CE
:10070000E491F0E0EE0FFF1FE152FF4F85919491CD
:10071000E7EDF0E0E491E0939B054ECF1092B0003E
:100720001092B1008091B00082608093B0008091FF
:10073000B10081608093B100E5EFF0E0E491F0E07A
:10074000EE0FFF1FE152FF4F8591949190939A0510
:1007500080939905E7EDF0E0E491E09398052CCFC4
:100760009FEFC916D104E104F10409F00CF489C02B
:1007700068E478EE81E090E0A50198010E943D1BBD
:1007800069017A0181E0C81AD108E108F1089D8168
:10079000992309F428C19FEFC916D104E104F1049B
:1007A00009F00CF41EC162E17AE780E090E0A50157
:1007B00094010E943D1B69017A0181E0C81AD108A9
:1007C000E108F1089D81992309F4EBC08FEFC81669
:1007D000D104E104F10411F008F0BFC086E048CF75
:1007E00064E274EF80E090E0A50194010E943D1B5B
:1007F00069017A0181E0C81AD108E108F10885E0B1
:100800009FEFC916D104E104F10409F008F430CFD8
:1008100062E17AE780E090E0A50194010E943D1B2F
:1008200069017A0191E0C91AD108E108F108CECF37
:1008300081E09D8191111CCF95B5987F892B85BD55
:100840002FEF3FEFA901411451046104710409F035
:1008500043C09D81913009F45EC0923009F46DC0AF
:1008600091118ECEC7BC2093A5053093A605409369
:10087000A7055093A80580916E00826080936E005A
:100880007FCE82E0D6CFB12CA12C60E072E18AE766
:1008900090E0A50198010E943D1B69017A0181E069
:1008A000C81AD108E108F108C114D10491E0E906A1
:1008B000F10404F591E08D81813011F68091810081
:1008C000887F892B809381002FEF3FEFA90141148E
:1008D000510461047104F9F0D801AA0FBB1FA301F0
:1008E00092010E945C1B28EE33E040E050E00E9441
:1008F000A61BAFCF68E478EE81E090E0A5019801F7
:100900000E943D1B69017A0181E0C81AD108E10803
:10091000F10893E0D0CFD0928900C0928800209354
:10092000A1053093A2054093A3055093A40580919F
:100930006F00826080936F0023CEC092B30020933B
:100940009D0530939E0540939F055093A00580918F
:10095000700082608093700013CEC980DA80EB80D3
:10096000FC809AE0F594E794D794C7949A95D1F7D0
:1009700091E0C91AD108E108F10887E079CEC98071
:10098000DA80EB80FC808AE0F594E794D794C794F2
:100990008A95D1F791E0C91AD108E108F10885E0FC
:1009A0004BCF8FEFC816D104E104F10409F038F7FA
:1009B00084E042CF68E478EE81E090E0A501980100
:1009C0000E943D1B69017A0191E0C91AD108E10832
:1009D000F1088FEFC816D104E104F10411F00CF016
:1009E000FFCE84E045CE8FEFC816D104E104F104B8
:1009F00011F00CF0D8CE83E01FCF82E039CE1F93E8
:100A0000CF93DF93182FEB0161E00E9465022097DE
:100A100039F460E0812FDF91CF911F910C940B028C
:100A2000CF3FD10511F461E0F5CFE12FF0E0E954BB
:100A3000FF4FE491E33031F140F4E130B1F0E230C6
:100A4000E1F0C038D1057CF7E4CFE73029F1E83098
:100A500059F1E430B1F7809180008062809380008A
:100A6000D0938B00C0938A0004C084B5806884BD95
:100A7000C7BDDF91CF911F91089584B5806284BD79
:100A8000C8BDF7CF80918000806880938000D093AC
:100A90008900C0938800EDCF8091B000806880937A
:100AA000B000C093B300E5CF8091B0008062809326
:100AB000B000C093B400DDCF3FB7F89480917305C8
:100AC00090917405A0917505B091760526B5A89B07
:100AD00005C02F3F19F00196A11DB11D3FBFBA2FD0
:100AE000A92F982F8827BC01CD01620F711D811D90
:100AF000911D42E0660F771F881F991F4A95D1F715
:100B000008958F929F92AF92BF92CF92DF92EF9211
:100B1000FF924B015C010E945C056B017C010E940D
:100B20005C056C197D098E099F09683E734081053B
:100B30009105A8F321E0821A9108A108B10888EE76
:100B4000C80E83E0D81EE11CF11C81149104A1049D
:100B5000B10429F7FF90EF90DF90CF90BF90AF9056
:100B60009F908F9008952FB7F89460916F057091C2
:100B7000700580917105909172052FBF0895DC0179
:100B8000EC91EC3090F511968C91119728E830E0BB
:100B9000281B310987FD3395220F331F220F331F86
:100BA0006217730784F012968C9128E532E0281BB7
:100BB000310987FD3395220F331F220F331F621730
:100BC00073070CF49B0122503109220F331F4FB7DA
:100BD000F8948E2F90E0FC01EE0FFF1FE80FF91F35
:100BE000EA5BF94F328321834FBF0895CF92DF92A2
:100BF000EF92FF92CF93DF93EC01603282E07807AF
:100C0000CCF5653B710514F064EB70E0898128E850
:100C100030E0281B310987FD3395220F331F220F47
:100C2000331F6901330FEE08FF088A8128E532E09F
:100C3000281B310987FD3395220F331F220F331FE5
:100C4000032E000C440B550B2C193D094E095F096E
:100C5000DB0177FF02C0B0E0A0E00E94671B24EB3D
:100C600030E040E050E00E943D1BC20ED31EE41E67
:100C7000F51EB601CE01DF91CF91FF90EF90DF908E
:100C8000CF900C94BF0520912105260F3327331FE9
:100C900021323105ECF420914505FC0190E080E023
:100CA000243069F082E00895A09121052191AC01E2
:100CB0004F5F5A4FA40FB52FB11D2C930196861785
:100CC00098F380912105680F6093210580E00895D5
:100CD00081E0089508958FEF9FEF08958FEF9FEFC4
:100CE00008958091FA0490E0919581959109089575
:100CF000CF93DF93CB01EA01642F0E944306CE011C
:100D0000DF91CF910895CF93DF931F92CDB7DEB7D8
:100D1000698361E0CE0101960E94430681E090E084
:100D20000F90DF91CF91089590E080E00895EF92C9
:100D3000FF920F931F93CF93DF93A1E7B6E0FD01DE
:100D400050E040E025812223A9F023813481281737
:100D5000390781F486E0849FE001859FD00D11243E
:100D6000CF58D94FCE01DF91CF911F910F91FF90B6
:100D7000EF9008954F5F5F4F36964630510511F75B
:100D800010E000E015962C911597211167C026E020
:100D9000209FE001219FD00D1124CF58D94F9C8373
:100DA0008B8321E02D8328812C30E0F67C0161E0EB
:100DB0000E9465028881282F30E0F901EE0FFF1FA5
:100DC000E20FF31FEA5BF94F2E2D2F739081907C79
:100DD000922B908319821A822CE0622F0E947D1C34
:100DE000829FB001112430E020E0AB01420F531F7D
:100DF000FA01EE0FFF1FE40FF51FEA5BF94F908138
:100E000096FD16C02F5F3F4F2C30310571F78111D1
:100E10000FC01092800082E08093810010928500C4
:100E200010928400B19A80916F00826080936F006D
:100E300086E0809FF001819FF00D1124EF58F94F5B
:100E4000E0818E2F90E0FC01EE0FFF1FE80FF91FED
:100E5000EA5BF94F80818064808384CF0F5F1F4FEE
:100E600016960630110509F08DCFD0E0C0E07ACF9C
:100E7000FC0101900020E9F73197AF01481B590BA5
:100E8000BC0189EA95E00C94AC008F929F92AF92DE
:100E9000BF920F931F93CF93DF93CDB7DEB7A19788
:100EA0000FB6F894DEBF0FBECDBF19A2423008F4D2
:100EB0004AE08E010F5D1F4F842E912CB12CA12C86
:100EC000A50194010E94A61BE62FB901CA01EA30D0
:100ED000F4F4E05DD801EE938D01232B242B252B18
:100EE00079F790E080E0109719F0CD010E94380763
:100EF000A1960FB6F894DEBF0FBECDBFDF91CF91A4
:100F00001F910F91BF90AF909F908F900895E95CD3
:100F1000E1CFCF93DF930E943807EC018FE191E09E
:100F20000E9438078C0F9D1FDF91CF910895CF92BB
:100F3000DF92EF92FF92CF93DF936C01990FEE084F
:100F4000FF08F7FE1FC06DE289EA95E00E944C01A0
:100F5000EC0166277727CB016C197D098E099F0963
:100F60004AE00E944507C80FD91F8FE191E00E9417
:100F700038078C0F9D1FDF91CF91FF90EF90DF908E
:100F8000CF9008954AE0C701B6010E944507EC01E1
:100F9000ECCFFC0124813581232B39F421E0FB01C6
:100FA0008081882349F020E007C0808191810E94E0
:100FB000A11E21E0892BB9F7822F0895FC018081C1
:100FC0009181009711F00C94691860E070E0CB01FA
:100FD0000895AF92BF92CF92DF92EF92FF920F935C
:100FE0001F93CF93DF93DC01CD90DC901197C11458
:100FF000D10439F01496CD91DC918C0176012097C3
:1010000061F4DF91CF911F910F91FF90EF90DF90EE
:10101000CF90BF90AF90089575015701BFEFAB1A05
:10102000BB0AF7018081082E000C990B0E94F5196C
:10103000892B91F72197CC0DDD1D8881082E000C9E
:10104000990B0E94F519892B29F0CE15DF0510F0B8
:101050002197F3CFAE014F5F5F4F4E195F09D80163
:1010600015965C934E931497CE14DF0420F4B701C9
:10107000C6010E948D1ED801ED91FC911197149626
:101080008D919C91E80FF91F1082BBCFCF93DF9316
:10109000DC011496ED91FC916E177F0710F59F010E
:1010A000261B370B4217530708F49A01DB01EC01AA
:1010B00088819981E21BF30BFD83EC83AF01461B12
:1010C000570B260F371FBC01620F731F8A0F9B1F20
:1010D0000E94BF1EE881F9818C819D81E80FF91F74
:1010E0001082DF91CF910895CF93DF93FC0124818B
:1010F0003581232B79F0C081D181062E000C770B2E
:10110000CE010E94961E009729F08C1B9D0BDF914B
:10111000CF9108958FEF9FEFFACFFB014481558166
:10112000FC01248135812417350778F08081918175
:10113000009759F0FB01608171816115710529F0FB
:101140000E94B11E21E0892B09F020E0822F089532
:101150000F931F93CF93DF938C01EB01FC018081F0
:1011600091810097E1F06881798161157105A9F09D
:10117000428153812C813D814217530770F00E94B8
:10118000AA1E8C819D81F801958384831D821C8217
:10119000DF91CF911F910F9108950E943F1D88818B
:1011A0009981F801918380838A819B8193838283D3
:1011B0008C819D8195838483198218821B821A8277
:1011C000E5CFCF93DF93EC0188819981009711F0EF
:1011D0000E943F1D198218821D821C821B821A8266
:1011E000DF91CF910895FC0180819181009711F0EA
:1011F0000C943F1D08950F931F93CF93DF93EC0141
:1012000088819981009759F02A813B8126173707F9
:1012100030F081E0DF91CF911F910F9108958B0104
:101220006F5F7F4F0E94C81D009759F09983888394
:101230001B830A832C813D81232B59F7FC011082EB
:10124000E8CF80E0E7CF0F931F93CF93DF9300D0D9
:10125000CDB7DEB789831A8200916F0610917006B0
:101260000F5F1F4FB8018BE696E00E94FB088823B2
:10127000A1F020916B0630916C0680916F069091E1
:101280007006BE016F5F7F4F820F931F0E94AA1EE0
:101290001093700600936F0681E00F900F90DF911E
:1012A000CF911F910F910895EF92FF920F931F938B
:1012B000CF93DF93EC017B018A01BA010E94FB0806
:1012C00081110BC0CE010E94E108CE01DF91CF91C8
:1012D0001F910F91FF90EF9008951D830C83B7012C
:1012E000888199810E94AA1EF0CFFB010190002005
:1012F000E9F73197AF01461B570B0C945409CF9374
:10130000DF93EC01FB018617970749F0608171813B
:101310006115710541F0448155810E945409CE0147
:10132000DF91CF9108950E94E108F9CFFC0111826D
:1013300010821382128215821482FB010190002018
:10134000E9F73197AF01461B570B0C945409AF9244
:10135000BF92CF92DF92EF92FF920F931F93CF93A2
:10136000DF936C015B017A0189012417350720F4B2
:101370008F2D7901042F182F61E271E0C6010E94C0
:101380009609D5011496CD91DC91EC16FD06E0F49A
:101390000C171D0708F4E801D501ED91FC91119798
:1013A000EC0FFD1F108110826D917C916E0D7F1DE1
:1013B000C60161157105A1F00E947509F5018081D2
:1013C0009181C80FD91F1883C601DF91CF911F915A
:1013D0000F91FF90EF90DF90CF90BF90AF90089566
:1013E0000E94E108EBCFCF93DF93EC01FB01248156
:1013F00035810E94A709CE01DF91CF9108951F93F7
:10140000CF93DF9385ED8093BC008091FD04909194
:10141000FE04A091FF04B09100050796A11DB11D27
:1014200023E0B695A795979587952A95D1F72091B2
:10143000BC0024FD03C01092450552C04091FD043C
:101440005091FE046091FF0470910005452B462BDE
:10145000472B69F30097A105B10541F02AE22A95CF
:10146000F1F700C00197A109B109E1CF8091FC0417
:10147000C1E0C093FB04882399F1D091B80010918A
:10148000BA008091BC008A7B8093BC0060E082E15E
:101490000E940B0260E083E10E940B02109245055E
:1014A000C09347051092460561E082E10E940B025D
:1014B00061E083E10E940B028091B9008E7F8093EE
:1014C000B9008091B9008D7F8093B90088E4809342
:1014D000B80085E48093BC001093BA00D093B800A4
:1014E000DF91CF911F9108951F920F920FB60F9227
:1014F00011242F933F934F935F936F937F938F9319
:101500009F93AF93BF93EF93FF9380919D0590912D
:101510009E05A0919F05B091A005892B8A2B8B2B4E
:10152000D1F190919805E0919905F0919A0580810B
:101530008927808380919D0590919E05A0919F05AC
:10154000B091A005181619061A061B069CF4809186
:101550009D0590919E05A0919F05B091A0050197D2
:10156000A109B10980939D0590939E05A0939F05C5
:10157000B093A005FF91EF91BF91AF919F918F9193
:101580007F916F915F914F913F912F910F900FBE7F
:101590000F901F901895809106010E943902EACFA2
:1015A0001F920F920FB60F9211242F933F934F93D8
:1015B0005F936F937F938F939F93AF93BF93EF93BB
:1015C000FF9389EA95E00E942A01FF91EF91BF9174
:1015D000AF919F918F917F916F915F914F913F91CB
:1015E0002F910F900FBE0F901F9018951F920F9282
:1015F0000FB60F9211242F938F939F93EF93FF9326
:10160000E091B905F091BA058081E091BF05F091B4
:10161000C00582FD1BC090818091C2058F5F8F73D2
:101620002091C305821741F0E091C205F0E0E75533
:10163000FA4F958F8093C205FF91EF919F918F9103
:101640002F910F900FBE0F901F9018958081F4CFAF
:101650001F920F920FB60F9211242F933F938F93E7
:101660009F93AF93BF9380916F0590917005A09168
:101670007105B091720530916E0523E0230F2D376F
:1016800058F50196A11DB11D20936E0580936F053D
:1016900090937005A0937105B093720580917305C6
:1016A00090917405A0917505B09176050196A11DE4
:1016B000B11D8093730590937405A0937505B09345
:1016C0007605BF91AF919F918F913F912F910F9090
:1016D0000FBE0F901F90189526E8230F0296A11DAC
:1016E000B11DD2CF1F920F920FB60F9211242F93DC
:1016F0003F934F935F936F937F938F939F93AF939A
:10170000BF93CF93DF93EF93FF9380916D05C091CB
:101710006A06D0E087FF24C01092850010928400F2
:1017200080916D058F5F80936D0580916D05082E0A
:10173000000C990B8C179D0724F480916D058C305B
:10174000C4F18091840090918500049680349C4976
:1017500008F47AC08091840090918500049676C048
:1017600080916D05082E000C990B8C179D07C4F60F
:10177000E0916D058E2FEE0F990BFC01EE0FFF1F10
:10178000E80FF91FEA5BF94F808186FFC9CFE0912E
:101790006D058E2FEE0F990BFC01EE0FFF1FE80F6A
:1017A000F91FEA5BF94F808160E08F730E940B02A2
:1017B000B7CF2091840030918500E0916D058E2F88
:1017C000EE0F990BFC01EE0FFF1FE80FF91FEA5B0C
:1017D000F94F81819281820F931F909389008093AA
:1017E0008800E0916D058E2FEE0F990BFC01EE0F36
:1017F000FF1FE80FF91FEA5BF94F808186FF11C0D8
:10180000E0916D058E2FEE0F990BFC01EE0FFF1F7F
:10181000E80FF91FEA5BF94F808161E08F730E9446
:101820000B02FF91EF91DF91CF91BF91AF919F910B
:101830008F917F916F915F914F913F912F910F9079
:101840000FBE0F901F90189580E49CE9909389003B
:10185000809388008FEF80936D05E3CF1F920F92E6
:101860000FB60F9211240F900FBE0F901F90189576
:101870001F920F920FB60F9211242F933F934F9305
:101880005F936F937F938F939F93AF93BF93EF93E8
:10189000FF938091B900887F803609F44AC0F0F543
:1018A000883209F4A5C018F5803109F499C0B8F45C
:1018B000882309F4F5C0883009F492C0FF91EF91B4
:1018C000BF91AF919F918F917F916F915F914F9158
:1018D0003F912F910F900FBE0F901F901895883158
:1018E00009F486C0803251F78093440514C08034D7
:1018F00009F49BC040F48033B9F38833F9F6809340
:10190000440585ECAEC0803509F483C0883509F400
:1019100094C0883499F60E94FF09D0CF883909F421
:101920008AC038F5883729F050F4883611F08037AE
:1019300029F683E0809345051092430555C0883809
:1019400009F479C0803919F0803809F0B7CF809157
:101950004305803208F06FC0E091430581E08E0FAF
:10196000809343058091BB00F0E0ED5DFA4F8083EA
:101970003BC0803B39F0D0F4803A09F477C0883A14
:1019800009F09CCF84E080934505109222051092C7
:101990002105F0E0E0E009958091210581110FC05B
:1019A00081E0809321051092010509C0803C09F473
:1019B000A8CF883C09F4A5CF883B09F07FCFE09100
:1019C000220581E08E0F80932205F0E0EF5FFA4F51
:1019D00080818093BB00909122058091210529C0D0
:1019E00080916A058093BB0085EC8093BC0066CF34
:1019F0009091690580916805981758F5E0916905FF
:101A000081E08E0F80936905F0E0E85BFA4F8081FA
:101A1000E9CFE091690581E08E0F8093690580919F
:101A2000BB00F0E0E85BFA4F8083909169058091FC
:101A300068059817C8F285E8D8CFE091690581E07C
:101A40008E0F809369058091BB00F0E0E85BFA4F50
:101A500080838091470581115ECF81E080934605A8
:101A600084EA8093BC001092450528CF85EC8093D2
:101A7000BC001092450580914305803230F4E0911E
:101A80004305F0E0ED5DFA4F10826091430570E090
:101A900083E295E0F0E0E0E00995109243050ECF77
:101AA0001092440538CF1092AC051092AB0588EE29
:101AB00093E0A0E0B0E08093AD059093AE05A093D5
:101AC000AF05B093B00581E191E09093AA058093B2
:101AD000A90585EC90E09093B6058093B50584EC5C
:101AE00090E09093B8058093B70580EC90E09093D8
:101AF000BA058093B90581EC90E09093BC05809382
:101B0000BB0582EC90E09093BE058093BD0586EC0A
:101B100090E09093C0058093BF051092C20510928B
:101B2000C3051092C4051092C505E1E7F6E04FEF3A
:101B300068EB7BE02FEF3FEF80916A068C30F8F482
:101B400091E0980F90936A06808390E0DC01AA0FE1
:101B5000BB1FA80FB91FAA5BB94F12967C936E9357
:101B60001197348323831582369686E0E539F8078A
:101B700019F761E271E08BE696E00C9496094083D8
:101B8000F0CFCF93DF93CDB7DEB7A4970FB6F8941D
:101B9000DEBF0FBECDBF789484B5826084BD84B5AE
:101BA000816084BD85B5826085BD85B5816085BD58
:101BB00080916E00816080936E0010928100809110
:101BC0008100826080938100809181008160809398
:101BD0008100809180008160809380008091B100BD
:101BE00084608093B1008091B00081608093B000E8
:101BF00080917A00846080937A0080917A0082607C
:101C000080937A0080917A00816080937A0080913D
:101C10007A00806880937A001092C100E091B90543
:101C2000F091BA0582E08083E091B505F091B605A8
:101C30001082E091B705F091B8058FEC8083109287
:101C4000C105E091BD05F091BE0586E08083E0917D
:101C5000BB05F091BC05808180618083E091BB056C
:101C6000F091BC05808188608083E091BB05F09194
:101C7000BC05808180688083E091BB05F091BC0544
:101C800080818F7D808361E08FE00E94650261E04A
:101C900080E10E94650261E083E00E94650261E0EC
:101CA00085E00E94650261E086E00E94650261E0D5
:101CB0008BE00E94650261E08DE00E94650261E0B8
:101CC0008CE00E94650282E291E00E94890703E0B5
:101CD00010E061E08DE00E940B0261E08FE00E9465
:101CE0000B0261E080E10E940B0264E670E080E09C
:101CF00090E00E94810560E08DE00E940B0260E0B0
:101D00008FE00E940B0260E080E10E940B0264E61B
:101D100070E080E090E00E94810501501109C9F651
:101D200060E083E00E940B0260E085E00E940B020D
:101D300060E086E00E940B0260E08BE00E940B02F4
:101D400002E010E061E08DE00E940B0261E08FE0B4
:101D50000E940B0261E080E10E940B0264EF71E0DF
:101D600080E090E00E94810560E08DE00E940B021F
:101D700060E08FE00E940B0260E080E10E940B02B5
:101D800064EF71E080E090E00E9481050130110570
:101D900009F0A5C060E08FE00E940B0260E080E1E6
:101DA0000E940B0260E08DE00E940B02809197057B
:101DB0008823A9F00E94B305009193051091940522
:101DC000209195053091960560177107820793075A
:101DD00030F01092970586E391E00E948907C09049
:101DE0000401D09005012FEFC216D20609F455C0A8
:101DF000E0900201F09003013FEFE316F30609F4CF
:101E00004CC00091000110910101E016F10609F4A7
:101E100044C00E94B30580908F0590909005A090DB
:101E20009105B0909205681979098A099B09643176
:101E300071058105910588F10E94B30560938F05B6
:101E40007093900580939105909392050E151F0550
:101E50000CF048C00B5F1F4FE016F1060CF448C0B1
:101E60001093010100930001C6010E9497060091A2
:101E7000000110910101009719F0B8010E94F605C8
:101E8000E016F10651F48FEF9FEF909303018093DA
:101E9000020180E491E00E9489078AE0E82EF12C9B
:101EA0009AEAC92ED12C28E3222E312C89EA95E01A
:101EB0000E940A01892B11F40C94741789EA95E0A9
:101EC0000E94E800182F8C33C1F461E271E08BE6C8
:101ED00096E00E9475098CE30E942309E7CF01E098
:101EE00010E030CF055011090E151F050CF0B8CFCA
:101EF000F0920101E0920001B7CF80916F069091BE
:101F00007006892B99F2812F0E9423091E3371F6E6
:101F100018A21F8E1AA219A21CA21BA26BE676E0C1
:101F2000CE014F960E947F0941E050E070E060E0F2
:101F3000CE014F960E9446086BA17CA161507109A9
:101F40004FEF5FEFCE014F960E9446086AE3CE0145
:101F50004F960E9474088C0161E271E0CE014996AF
:101F60000E94960961E271E0CE0143960E949609B3
:101F70000F3F100709F07BC0BE01615E7F4FCE01AD
:101F800049960E947F0961E271E0CE0143960E946A
:101F90007509CE0149960E94E907CE0143960E9439
:101FA000E9076AE471E0CE0149960E94C9078823D7
:101FB00009F488C0CE0143960E94E90767E571E005
:101FC000CE0101960E949609BE016F5F7F4FCE0140
:101FD00043960E948D0810E0882321F167E571E0A7
:101FE000CE0107960E9496092F89388D4B855C8516
:101FF0002417350790F08B899C89009771F06F81C9
:1020000078856115710549F0241B350B820F931FEC
:102010000E94A11E11E0892B09F010E0CE01079665
:102020000E94F308CE0101960E94F308112391F05B
:1020300041E050E070E060E0CE0143960E94460827
:102040006F89788D615071094FEF5FEFCE01439634
:102050000E9446084F89588D6B897C8989EA95E0F2
:102060000E94AC008FE191E00E94380711C19801F5
:1020700050E040E0BE01615E7F4FCE0101960E94BC
:10208000A709BE016F5F7F4FCE0149960E94A80845
:10209000CE0101960E94F308A8014F5F5F4FBE0179
:1020A000615E7F4FCE0101960E94F309BE016F5F12
:1020B0007F4FCE0143960E94A808CE0101960E9450
:1020C000F30867CF6DE472E0CE0149960E94C9071C
:1020D0008823E9F16CE2CE0143960E9474088C01DA
:1020E00089E591E00F3F100709F459C0980150E0CD
:1020F00040E0BE016D5E7F4FCE0107960E94A709AA
:10210000A8014F5F5F4FBE016D5E7F4FCE0101960C
:102110000E94F309CE0107960E94E907CE010196BD
:102120000E94E907CE0107960E94DE074B01CE010F
:1021300001960E94DE07AB01BC0166277727C40128
:102140000E94A1028FE691E00E948907B5C26DE767
:1021500071E0CE0149960E94C907882319F1CE018A
:1021600043960E94E907CE0143960E94DE074B0189
:102170005C018CE00E94390281E0809397050E9407
:10218000B305860E971EA81EB91E809293059092E5
:102190009405A0929505B092960583E891E00E947F
:1021A000890776C065EA71E0CE0149960E94C907A9
:1021B000882309F486C06CE2CE0143960E9474081D
:1021C0008C010F3F100719F483E991E0E8CF9801E3
:1021D00050E040E0BE016D5E7F4FCE010D960E9443
:1021E000A709A8014F5F5F4FBE016D5E7F4FCE0113
:1021F00007960E94F309CE010D960E94E907CE01D1
:1022000007960E94E90766ED72E0CE0101960E94F2
:102210009609BE016F5F7F4FCE010D960E948D081B
:10222000182FCE0101960E94F308112309F443C030
:1022300041E050E0BE01635F7F4FCE0101960E94F6
:10224000F309CE0101960E94DE078B01CE010196B3
:102250000E94F30863EB71E0CE0107960E94C90764
:10226000BB24B394811120C768EB71E0CE010796BF
:102270000E94C907811117C78CEB91E00E94890762
:10228000CE0107960E94F308CE010D960E94F30836
:10229000CE0143960E94F308CE0149960E94F308AE
:1022A000CE014F960E94F30861E271E08BE696E062
:1022B0000E947509FBCDCE010D960E94DE078B01B1
:1022C000C9CF66EF71E0CE0149960E94C907882305
:1022D00009F46EC06CE2CE0143960E9474088C0132
:1022E00084EE91E00F3F100709F459CF980150E0B8
:1022F00040E0BE016D5E7F4FCE010D960E94A709A2
:10230000A8014F5F5F4FBE016D5E7F4FCE01079604
:102310000E94F309CE010D960E94E907CE010796AF
:102320000E94E90766ED72E0CE0101960E949609CF
:10233000BE016F5F7F4FCE010D960E948D08182F52
:10234000CE0101960E94F308112349F141E050E0CB
:10235000BE01635F7F4FCE0101960E94F309CE015B
:1023600001960E94DE078B01CE0101960E94F308C0
:10237000CE0107960E94DE074B010F3F1007A9F020
:102380006F3F710509F088F461E0802F0E946502BB
:10239000B401802F0E94FF0480E092E06FCFCE0155
:1023A0000D960E94DE078B01E3CF83E092E066CFBB
:1023B00067E472E0CE0149960E94C907882309F4B8
:1023C0001EC16CE2CE0143960E9474088C018F3FBF
:1023D000980709F411C19C0150E040E0BE016D5E18
:1023E0007F4FCE0101960E94A709CE0101960E945F
:1023F000DE07B62ECE0101960E94F308A8014F5FBA
:102400005F4FBE016D5E7F4FCE0101960E94F309C2
:10241000CE0101960E94DE07162FCE0101960E9482
:10242000F30861E08B2D0E94650260E0812F0E941D
:1024300065021B1104C061E0812F0E94650260E00B
:102440008B2D0E940B0283E090E00197F1F761E091
:102450008B2D0E940B0283E290E00197F1F760E080
:102460008B2D0E940B021B1104C060E0812F0E9483
:1024700065020E945C054B015C01812F0E94E20114
:10248000892B59F40E945C05681979098A099B090E
:1024900061327E448105910580F30E945C054B0109
:1024A0005C01812F0E94E201892B59F00E945C059A
:1024B000681979098A099B0961327E448105910571
:1024C00080F30E945C05CB0188199909B1010E9433
:1024D000891C90E080E00E941D1A4B015C0187E29C
:1024E00092E00E943807A5019401C501B4010E9441
:1024F000781C882329F082E392E00E943807B2CD4D
:102500002FEF3FEF4FE75FE7C501B4010E94781C52
:1025100081110DC02FEF3FEF4FE75FE7C501B40119
:102520000E94161A18161CF486E392E0E6CF2FEFED
:102530003FEF4FE75FE4C501B4010E94731C18161A
:102540001CF48AE392E0D9CF2FEF3FEF4FE75FEC27
:10255000C501B4010E94161A87FDF3CF2AE037EDBA
:1025600043EA5BE3C501B4010E94D81B2B013C0187
:102570000E94441C4B015C010E941B1A9B01AC0190
:10258000C301B2010E94D71B2B013C014AE0C501E7
:10259000B4010E9445076EE289EA95E00E944C0171
:1025A00020E030E040E251E4C301B2010E947C1A15
:1025B0002B013C010E94441C4B01B12CA12C4AE090
:1025C000C501B4010E944507C501B4010E941B1A50
:1025D0009B01AC01C301B2010E94D71B20E030E097
:1025E00040E251E40E947C1A0E94441C90E080E08A
:1025F0004AE00E94450736CD8EE392E0D0CD63E6F7
:1026000072E0CE0149960E94C907882309F45EC092
:102610006CE2CE0143960E9474088C010F3F1007B4
:1026200019F481E592E0BBCD980150E040E0BE0195
:102630006D5E7F4FCE0107960E94A709A8014F5FEC
:102640005F4FBE016D5E7F4FCE0101960E94F30980
:10265000CE0107960E94E907CE0101960E94E90784
:10266000CE0107960E94DE074B0160E772E0CE01C3
:1026700001960E94C90760E081110CC066E772E014
:10268000CE0101960E94C90762E0811103C083E870
:1026900092E05ACDE4E18E169104A8F4882D0E94B0
:1026A0006502882D0E94E2018C0186E992E00E9479
:1026B0003807C8010E949707CE0101960E94F308CF
:1026C000CE010796E3CD85EA92E03ECD6CEC72E058
:1026D000CE0149960E94C907882309F47AC018865A
:1026E0001F821A8619861C861B86BE016D5E7F4F6F
:1026F000CE0107960E947F09CE0107960E94E90746
:102700000F8118850115110571F0F80181918F0174
:10271000882349F0082E000C990B0E94851EF801B1
:1027200031978083F2CF69EF73E0CE0101960E946A
:102730009609BE016F5F7F4FCE0107960E948D08FC
:10274000182FCE0101960E94F308111111C00FEF4E
:102750001FEFCE0107960E94F3080F3F1007B1F15B
:1027600088ED92E00E943807C8010E94970790CD3B
:1027700041E050E0BE01695F7F4FCE0101960E94AB
:10278000F309CE0101960E94DE074B01CE010196AE
:102790000E94F308F8E08F169104C8F6882D9EE099
:1027A000980D9E3008F4892F8770806480937C0098
:1027B00080917A00806480937A0080917A0086FD0F
:1027C000FCCF0091780010917900C3CF86EE92E0A3
:1027D000E6CC63E073E0CE0149960E94C9078823E6
:1027E000A1F163EB71E0CE0143960E94C90761E05D
:1027F000811109C068EB71E0CE0143960E94C907C0
:10280000882329F060E08DE00E940B0295C0CE0184
:1028100043960E94DE0716161706A4F470938D05E2
:1028200060938C0581E080938E050E94B3056093D0
:1028300088057093890580938A0590938B05109283
:102840008705E0CF8DE093E0AACC6FE173E0CE0185
:1028500049960E94C9078823A1F063EB71E0CE017D
:1028600043960E94C90761E0811109C068EB71E0DD
:10287000CE0143960E94C907882321F360E08FE0D0
:10288000C3CF68E273E0CE0149960E94C90788234E
:10289000A1F063EB71E0CE0143960E94C90761E0AD
:1028A000811109C068EB71E0CE0143960E94C9070F
:1028B000882341F260E080E1A7CF62E373E0CE01BC
:1028C00049960E94C90781113AC065E373E0CE01C1
:1028D00049960E94C907811132C068E373E0CE01B6
:1028E00049960E94C90781112AC06BE373E0CE01AB
:1028F00049960E94C907811122C06FE373E0CE019F
:1029000049960E94C907811143C06CE673E0CE016D
:1029100049960E94C907882309F444C0CE01439612
:102920000E94DE074B0170E060E083E00E94FF043C
:10293000B40185E00E94FF0480E092E030CC41E0E9
:1029400050E0BE01675E7F4FCE0101960E94F30901
:10295000CE0101960E94DE07162FCE0101960E943D
:10296000F30863EB71E0CE0143960E94C90761E072
:10297000811109C068EB71E0CE0143960E94C9073E
:10298000882319F060E0812F3FCF85E593E007CCE5
:10299000CE0143960E94DE0783E00E94FF0470E0B0
:1029A00060E0C7CF60E873E0CE0149960E94C90796
:1029B000882351F0CE0143960E94DE0786E00E94F4
:1029C000FF0470E060E013C065E973E0CE01499652
:1029D0000E94C907882369F0CE0143960E94DE0752
:1029E0004B0170E060E086E00E94FF04B4018BE0E0
:1029F000A1CF68EA73E0CE0149960E94C9078823F7
:102A0000E9F16CE2CE0143960E9474088C018F3F7D
:102A1000980719F485EB93E0C2CB9C0150E040E0AD
:102A2000BE016D5E7F4FCE0101960E94A709CE01C7
:102A300001960E94DE072B01CE0101960E94F30849
:102A4000A8014F5F5F4FBE016D5E7F4FCE010196C3
:102A50000E94F309CE0101960E94DE074B01CE01D0
:102A600001960E94F308B20183E00E94FF0470E027
:102A700060E085E00E94FF04B401A0CF65EC73E044
:102A8000CE0149960E94C9078823D1F16CE2CE019C
:102A900043960E9474088C018F3F980709F4BACFBF
:102AA0009C0150E040E0BE016D5E7F4FCE0101967B
:102AB0000E94A709CE0101960E94DE072B01CE01DC
:102AC00001960E94F308A8014F5F5F4FBE016D5E43
:102AD0007F4FCE0101960E94F309CE0101960E941C
:102AE000DE074B01CE0101960E94F30870E060E022
:102AF00083E00E94FF04B20185E00E94FF0471CFD1
:102B000060ED73E0CE0149960E94C907882369F001
:102B100070E060E083E00E94FF0470E060E085E028
:102B20000E94FF0470E060E049CF66ED73E0CE01E3
:102B300049960E94C907882319F070E060E02CCF05
:102B400065EE73E0CE0149960E94C9078111EACF74
:102B500063EF73E0CE0149960E94C907882379F19B
:102B6000CE0143960E94E9078B899C89812C912C88
:102B70005401009721F00E9465184B015C0181E02F
:102B8000809397050E94B3052B013C0120E030E0C3
:102B90004AE754E4C501B4010E947C1A0E94441C17
:102BA000460E571E681E791E40929305509294055A
:102BB00060929505709296058BEF93E0F0CA6DE0F8
:102BC00074E0CE0149960E94C9078823F1F0CE0136
:102BD00043960E94E907CE0143960E94DE074B010F
:102BE0005C0181E0809397050E94B305860E971ED5
:102BF000A81EB91E8092930590929405A092950507
:102C0000B092960588E194E0CACA60E374E0CE0110
:102C100049960E94C907882379F0CE0143960E9405
:102C2000DE07AB01770F660B770B88EE93E00E940F
:102C3000A1028DE294E0B3CA65E374E0CE01499647
:102C40000E94C9078823E1F0CE0143960E94DE0767
:102C5000161617060CF0F6CD21E02093860570932A
:102C6000800560937F050E94B30560938205709391
:102C70008305809384059093850510928105FECD90
:102C800064E474E0CE0149960E94C9078823E1F00C
:102C9000CE0143960E94DE07161617060CF0D2CD21
:102CA00021E020937E0570937805609377050E945C
:102CB000B30560937A0570937B0580937C059093B0
:102CC0007D0510927905F6CD69EF73E0CE01499646
:102CD0000E94C907882351F1CE0143960E94DE0766
:102CE0004B01CB010E949706009719F484E594E00C
:102CF00056CA9092050180920401D0920101C092BF
:102D00000001F0920301E09202016AEA70E00E9481
:102D1000F6050E94B30560938F057093900580932C
:102D20009105909392058EE694E039CA64E874E0C8
:102D3000CE0149960E94C907882339F1CE014396F6
:102D40000E94DE074B01CB010E949706009771F2AB
:102D50009092050180920401F0920101E09200013D
:102D6000D0920301C09202016AE070E00E94F60571
:102D70000E94B30560938F05709390058093910531
:102D80009093920586E894E00ACA66EA74E0CE0160
:102D900049960E94C9078823C1F16CE2CE0143968F
:102DA0000E9474088C019C0150E040E0BE016D5E01
:102DB0007F4FCE0101960E94A709CE0101960E9485
:102DC000DE072B01CE0101960E94F308A8014F5F98
:102DD0005F4FBE016D5E7F4FCE0101960E94F309E9
:102DE000CE0101960E94DE074B01CE0101960E94A2
:102DF000F308C2010E949706009709F449CAB4017A
:102E00000E94BF058DE994E0CAC962EB74E0CE016F
:102E100049960E94C9078823C1F16CE2CE0143960E
:102E20000E9474088C019C0150E040E0BE016D5E80
:102E30007F4FCE0101960E94A709CE0101960E9404
:102E4000DE072B01CE0101960E94F308A8014F5F17
:102E50005F4FBE016D5E7F4FCE0101960E94F30968
:102E6000CE0101960E94DE074B01CE0101960E9421
:102E7000F308C2010E949706009709F409CAB40139
:102E80000E94BF0589EA94E08AC963E374E0CE0139
:102E900049960E94C907882389F0CE0143960E9473
:102EA000DE07CB010E949706009709F4F1C96CED8B
:102EB00075E00E94BF0585EB94E071C965EC74E094
:102EC000CE0149960E94C907882341F065EC74E061
:102ED000CE0143960E94C907811103C089EC94E09A
:102EE0005EC98FED94E05BC980918E05882309F45B
:102EF00042C000918C0510918D0510161106DCF56D
:102F00000E94B305C0908805D0908905E0908A059D
:102F1000F0908B059B01AC012C193D094E095F090E
:102F200069017A013CE2C31631E0D306E104F10401
:102F300010F1609388057093890580938A059093BA
:102F40008B05F090870581E0F826F09287056F2DBC
:102F50008DE00E940B02F1100EC001501109109378
:102F60008D0500938C05012B31F410928E0586E3BC
:102F700091E00E94890780918605882309F43FC06B
:102F80000E94B3050091820510918305209184056C
:102F900030918505601B710B820B930B6C32714075
:102FA0008105910560F10E94B305609382057093DD
:102FB000830580938405909385051091810581E0B8
:102FC000182710938105612F8FE00E940B021111C9
:102FD00016C080917F0590918005019790938005A0
:102FE00080937F051816190654F01092860560E04C
:102FF0008FE00E940B0286E391E00E948907809196
:103000007E05882309F43FC00E94B30500917A052C
:1030100010917B0520917C0530917D05601B710B23
:10302000820B930B6C3271408105910560F10E9417
:10303000B30560937A0570937B0580937C0590932C
:103040007D051091790581E0182710937905612F8E
:1030500080E10E940B02111116C0809177059091BA
:1030600078050197909378058093770518161906CF
:1030700054F010927E0560E080E10E940B0286E32E
:1030800091E00E94890780E090E0892B11F40C9474
:10309000D60E0E941601882311F40C94D60E0E94BD
:1030A00000000C94D60EB12C0F3F100709F4E4C8B1
:1030B00061E0802F0E9465026B2D802F0E940B0221
:1030C0006BC98BE696E00C94F308662777270C947F
:1030D000A5181F93FC0199278827BC01E89411913A
:1030E0001032E9F3193010F01E30C8F31B3251F0E2
:1030F0001D3249F4689406C00E949018610F711D3A
:10310000811D911D119110531A30B0F33EF490952A
:103110008095709561957F4F8F4F9F4F1F910895B8
:10312000592F482F372F262F660F771F881F991F7B
:10313000660F771F881F991F620F731F841F951FCB
:10314000660F771F881F991F0895B0E0A0E0EBEA93
:10315000F8E10C94751B5C017B016115710519F098
:10316000DB018D939C9385010F5F1F4FF501D0818B
:103170008D2F90E00E94F5196C01892BB9F5DD3295
:10318000B9F50F5F1F4FD5011196DC91C1E05801D1
:10319000F1E0AF1AB10843E050E060E770E0C5012C
:1031A0000E94FE19892B69F5680182E0C80ED11CC6
:1031B00045E050E06BE670E0C6010E94FE19892BE5
:1031C00021F4680197E0C90ED11CE114F10419F053
:1031D000D701CD92DC9260E070E080E89FEFC111F2
:1031E000FFC060E070E080E89FE7FAC05801BBCF05
:1031F000DB3229F485010E5F1F4FF501D181C0E05C
:10320000C6CF43E050E068E670E0C5010E94FE19B9
:10321000892BE9F0F80110E000E020E030E0A9019E
:103220005F01B0ED8B2E8D0E89E08815C8F19C2EC4
:10323000689491F88C2F8870C2FF16C0811102C06B
:103240000F5F1F4F3196D501DC91C92DE9CFE114F5
:10325000F10429F00E5F1F4FF7011183008360E036
:1032600070E080EC9FE7BCC0882311F00150110989
:10327000A5E0B0E00E945C1B9B01AC01220F331F54
:10328000441F551F280D311D411D511D283999E935
:103290003907490799E15907A8F2C6609C2ED2CF99
:1032A000AEEF8A1206C0C3FD3CC09C2E689493F812
:1032B000C9CFDF7DD534A9F580818D3239F4C06165
:1032C000DF011296818162E070E006C0DF018B327F
:1032D000C1F3119661E070E080535D01A61AB70A50
:1032E0008A30F8F4E0E8CE16ECE0DE065CF4B601D5
:1032F000660F771F660F771FC60ED71ECC0CDD1C1E
:10330000C80ED11C5D01FFEFAF1ABF0A8C9180532C
:103310008A30A8F1C4FF03C0D194C194D1080C0D28
:103320001D1DC1FF09C0E114F10431F081E0A81AAC
:10333000B108D701AD92BC92CA01B9010E941B1A13
:10334000C370C33009F490584B015C0120E030E0B9
:10335000A9010E94161A882309F440C0CFE9D0E0E1
:1033600017FF05C0119501951109C7E8D0E06E015E
:10337000B8E1CB1AD10880E2E82EF12C0FC0D501BC
:10338000B1CFFE0125913591459154910E191F0938
:10339000C501B4010E947C1A4B015C01D501C40136
:1033A0000E151F0574F72497F594E794CC16DD06E7
:1033B000A9F78A2F880F8B2F881F8F3F49F020E0B5
:1033C00030E0A901C501B4010E94161A811106C09E
:1033D00082E290E09093960680939506C501B40131
:1033E000CDB7DEB7ECE00C94911B91110C94E91A67
:1033F000803219F089508550C8F70895FB01DC012F
:103400004150504088F08D9181341CF08B350CF484
:10341000805E659161341CF06B350CF4605E861B38
:10342000611171F3990B0895881BFCCF0E94581A03
:1034300008F481E00895E89409C097FB3EF4909564
:103440008095709561957F4F8F4F9F4F9923A9F07D
:10345000F92F96E9BB279395F6958795779567950C
:10346000B795F111F8CFFAF4BB0F11F460FF1BC050
:103470006F5F7F4F8F4F9F4F16C0882311F096E9E3
:1034800011C0772321F09EE8872F762F05C0662391
:1034900071F096E8862F70E060E02AF09A95660F4A
:1034A000771F881FDAF7880F9695879597F9089503
:1034B000990F0008550FAA0BE0E8FEEF1616170645
:1034C000E807F907C0F012161306E407F50798F0AD
:1034D000621B730B840B950B39F40A2661F0232BC6
:1034E000242B252B21F408950A2609F4A140A69542
:1034F0008FEF811D811D08950E948F1A0C94031B6C
:103500000E94F51A38F00E94FC1A20F0952311F061
:103510000C94EC1A0C94F21A11240C94371B0E9490
:10352000141B70F3959FC1F3950F50E0551F629FD8
:10353000F001729FBB27F00DB11D639FAA27F00D0C
:10354000B11DAA1F649F6627B00DA11D661F829F33
:103550002227B00DA11D621F739FB00DA11D621F18
:10356000839FA00D611D221F749F3327A00D611D35
:10357000231F849F600D211D822F762F6A2F112417
:103580009F5750409AF0F1F088234AF0EE0FFF1F4A
:10359000BB1F661F771F881F91505040A9F79E3FA1
:1035A000510580F00C94EC1A0C94371B5F3FE4F348
:1035B000983ED4F3869577956795B795F795E795F7
:1035C0009F5FC1F7FE2B880F911D9695879597F900
:1035D000089599278827089597F99F6780E870E0F4
:1035E00060E008959FEF80EC089500240A94161679
:1035F000170618060906089500240A9412161306E1
:10360000140605060895092E0394000C11F488236E
:1036100052F0BB0F40F4BF2B11F460FF04C06F5F8A
:103620007F4F8F4F9F4F089557FD9058440F551F60
:1036300059F05F3F71F04795880F97FB991F61F034
:103640009F3F79F087950895121613061406551FAB
:10365000F2CF4695F1DF08C0161617061806991F17
:10366000F1CF86957105610508940895E894BB270C
:1036700066277727CB0197F90895052E97FB1EF44F
:1036800000940E94541B57FD07D00E94A61B07FC04
:1036900003D04EF40C94541B5095409530952195D1
:1036A0003F4F4F4F5F4F089590958095709561956E
:1036B0007F4F8F4F9F4F08950E94C81BA59F900D6D
:1036C000B49F900DA49F800D911D11240895B7FF04
:1036D0000C945C1B0E945C1B821B930B08952F9221
:1036E0003F924F925F926F927F928F929F92AF9292
:1036F000BF92CF92DF92EF92FF920F931F93CF93DF
:10370000DF93CDB7DEB7CA1BDB0B0FB6F894DEBF75
:103710000FBECDBF09942A88398848885F846E849B
:103720007D848C849B84AA84B984C884DF80EE80E5
:10373000FD800C811B81AA81B981CE0FD11D0FB6EE
:10374000F894DEBF0FBECDBFED010895A1E21A2EA1
:10375000AA1BBB1BFD010DC0AA1FBB1FEE1FFF1F35
:10376000A217B307E407F50720F0A21BB30BE40B85
:10377000F50B661F771F881F991F1A9469F76095CC
:103780007095809590959B01AC01BD01CF01089586
:10379000A29FB001B39FC001A39F700D811D112492
:1037A000911DB29F700D811D1124911D08955058D7
:1037B000BB27AA270E94EF1B0C94031B0E94F51A3B
:1037C00038F00E94FC1A20F039F49F3F19F426F4D7
:1037D0000C94F21A0EF4E095E7FB0C94EC1AE92F26
:1037E0000E94141B58F3BA176207730784079507E2
:1037F00020F079F4A6F50C94361B0EF4E0950B2E10
:10380000BA2FA02D0B01B90190010C01CA01A00132
:103810001124FF27591B99F0593F50F4503E68F18D
:103820001A16F040A22F232F342F4427585FF3CFCE
:10383000469537952795A795F0405395C9F77EF49F
:103840001F16BA0B620B730B840BBAF09150A1F0E8
:10385000FF0FBB1F661F771F881FC2F70EC0BA0F6E
:10386000621F731F841F48F4879577956795B795F6
:10387000F7959E3F08F0B0CF9395880F08F09927F1
:10388000EE0F9795879508950E941C1B88F09F570F
:1038900098F0B92F9927B751B0F0E1F0660F771F74
:1038A000881F991F1AF0BA95C9F714C0B13091F06A
:1038B0000E94361BB1E008950C94361B672F782FB9
:1038C0008827B85F39F0B93FCCF38695779567952F
:1038D000B395D9F73EF490958095709561957F4F9B
:1038E0008F4F9F4F08950E94581A08F48FEF089544
:1038F0000E94581A880B990B0895991B79E004C00F
:10390000991F961708F0961B881F7A95C9F780951E
:103910000895AA1BBB1B51E107C0AA1FBB1FA61716
:10392000B70710F0A61BB70B881F991F5A95A9F768
:1039300080959095BC01CD010895EE0FFF1F059075
:10394000F491E02D09940F931F93CF93DF9382306E
:10395000910510F482E090E0E0919906F0919A06CA
:1039600030E020E0B0E0A0E0309799F42115310577
:1039700009F44AC0281B390B24303105D8F58A8157
:103980009B816115710589F1FB0193838283FE019F
:1039900011C0408151810281138148175907E0F01D
:1039A0004817590799F4109761F012960C931297E3
:1039B00013961C933296CF01DF91CF911F910F91F7
:1039C00008950093990610939A06F4CF21153105B6
:1039D00051F04217530738F0A901DB019A01BD01EC
:1039E000DF01F801C1CFEF01F9CF90939A068093E0
:1039F0009906CDCFFE01E20FF31F819391932250E0
:103A0000310939832883D7CF2091970630919806C2
:103A1000232B41F42091090130910A01309398063B
:103A20002093970620910701309108012115310557
:103A300041F42DB73EB740910B0150910C01241B6E
:103A4000350BE0919706F0919806E217F307A0F482
:103A50002E1B3F0B2817390778F0AC014E5F5F4FE4
:103A60002417350748F04E0F5F1F50939806409378
:103A70009706819391939FCFF0E0E0E09CCFCF93A6
:103A8000DF930097E9F0FC01329713821282A09134
:103A90009906B0919A06ED0130E020E01097A1F46C
:103AA00020813181820F931F2091970630919806D3
:103AB0002817390709F061C0F0939806E09397063C
:103AC000DF91CF910895EA01CE17DF07E8F54A812B
:103AD0005B819E0141155105B1F7E901FB83EA8342
:103AE00049915991C40FD51FEC17FD0761F48081EE
:103AF00091810296840F951FE901998388838281C1
:103B000093819B838A83F0E0E0E012968D919C91F3
:103B100013970097B9F52D913C911197CD0102961D
:103B2000820F931F20919706309198062817390726
:103B300039F6309751F510929A0610929906B09383
:103B40009806A0939706BCCFD383C283408151814E
:103B5000840F951FC817D90761F44E5F5F4F8881A6
:103B60009981480F591F518340838A819B81938398
:103B700082832115310509F0B0CFF0939A06E093C6
:103B800099069ECFFD01DC01C0CF13821282D7CFF0
:103B9000B0E0A0E0EEECFDE10C94711B8C0100970D
:103BA00051F4CB010E94A31C8C01C801CDB7DEB734
:103BB000E0E10C948D1BFC01E60FF71F9C012250E5
:103BC0003109E217F30708F49DC0D901CD91DC91CA
:103BD0001197C617D70798F0C530D10530F3CE013D
:103BE00004978617970708F3C61BD70B2297C19334
:103BF000D1936D937C93CF010E943F1DD6CF5B0183
:103C0000AC1ABD0A4C018C0E9D1EA0919906B09174
:103C10009A06512C412CF12CE12C109731F5809112
:103C20009706909198068815990509F05CC046168C
:103C3000570608F058C0809107019091080100973D
:103C400041F48DB79EB740910B0150910C01841B3C
:103C5000950BE817F90708F055C0F0939806E09324
:103C60009706F90171836083A0CF8D919C91119784
:103C700012966C90129713967C901397A815B9051D
:103C800059F56C0142E0C40ED11CCA14DB0420F1CA
:103C9000AC014A195B09DA011296159780F062822D
:103CA000738251834083D9016D937C93E114F104B5
:103CB00071F0D7011396FC93EE93129776CF22966C
:103CC0008C0F9D1FF90191838083F301EFCFF09357
:103CD0009A06E093990669CF4816590608F42C0114
:103CE0007D01D3019ACFCB010E94A31C7C010097D8
:103CF00049F0AE01B8010E948D1EC8010E943F1D0F
:103D0000870153CF10E000E050CF91110895815604
:103D10008A5108F4805285580895FB01DC0102C0E5
:103D200001900D9241505040D8F70895FC018191C7
:103D3000861721F08823D9F7992708953197CF0165
:103D40000895FB01DC018D91019080190110D9F3D8
:103D5000990B0895FB01DC0101900D920020E1F721
:103D60000895FB01DC014150504030F08D910190ED
:103D7000801919F40020B9F7881B990B0895FB01ED
:103D8000DC014150504048F001900D920020C9F7ED
:103D900001C01D9241505040E0F7089510E0C0E886
:103DA000D0E004C0FE010E949D1C2196C138D107BD
:063DB000C9F7F894FFCFF3
:103DB600FFFFFFFFFFFFFF00009B068000000000E3
:103DC600004C01AC00D90099010A01E800FC000D85
:103DD6000A005A4F595F4649524D574152455F5660
:103DE600302E392E300050415553415F46494D0023
:103DF600534552564F5F46494D0053455249414C33
:103E06005F5052494E540022004552524F3A415299
:103E1600475F494E56414C49444F5F534F4D004F03
:103E26004B5F534F4D5F494E4943494F00504155F3
:103E36005341004F4B5F50415553415F494E4943F3
:103E4600494F004552524F3A4152475F494E5641FB
:103E56004C49444F5F4449474954414C5F57524986
:103E660054450048494748004C4F57004552524F69
:103E76003A504152414D4554524F535F4449474988
:103E860054414C5F57524954455F494E56414C493F
:103E9600444F53004552524F3A4152475F494E569E
:103EA600414C49444F5F50574D5F57524954450066
:103EB6004F4B004552524F3A504152414D45545294
:103EC6004F535F50574D5F57524954455F494E56C1
:103ED600414C49444F530044495354414E43494190
:103EE6003A006E616E00696E66006F766600455236
:103EF600524F3A4152475F554C54524153534F4DDE
:103F0600004552524F3A4152475F494E56414C493D
:103F1600444F5F4449474954414C5F524541440030
:103F2600494E50555400494E5055545F50554C4CCF
:103F36005550004552524F3A4D4F444F5F494E56E9
:103F4600414C49444F004449474954414C5F56410E
:103F56004C4F523A004552524F3A504152414D450C
:103F660054524F535F4449474954414C5F5245416F
:103F7600445F494E56414C49444F5300414E414CD3
:103F86004F475F5245414400414E414C4F475F56B3
:103F9600414C4F523A004552524F3A50494E4F5FAC
:103FA600414E414C4F4749434F5F494E56414C495C
:103FB600444F004C45445F5452455A4500455252C1
:103FC6004F3A4152475F494E56414C49444F004C87
:103FD60045445F4C454654004C45445F524947486A
:103FE6005400443300443500443600443131004D1A
:103FF6004F544F525F455351554552444F5F4652B9
:10400600454E5445004552524F3A4152475F494E3C
:1040160056414C49444F5F50494E4F004D4F544F07
:10402600525F455351554552444F5F5452415300D8
:104036004D4F544F525F4449524549544F5F465283
:10404600454E5445004D4F544F525F4449524549E1
:10405600544F5F54524153004D4F544F525F465296
:10406600454E5445004552524F3A415247554D45EB
:104076004E544F53004D4F544F525F5452415300CC
:1040860050415241520050415241525F45535155A1
:104096004552444F0050415241525F4449524549AE
:1040A600544F0041475541524441004F4B5F4147F1
:1040B60055415244415F494E4943494F0041475596
:1040C600415244415F4D53004F4B5F41475541526A
:1040D60044415F4D535F494E4943494F004F4B5F43
:1040E60042454550004C45445F50495343415F4C5F
:1040F600454654004C45445F50495343415F52493D
:10410600474854004552524F3A5A4F595F4D41580D
:104116005F534552564F535F4C494D4954004F4BE0
:104126005F41425249525F47415252415F494E49AF
:1041360043494F0043004F4B5F4645434841525F5A
:1041460047415252415F494E4943494F004F4B5FE9
:10415600534552564F5F484F004F4B5F534552569B
:104166004F5F4148004F4B5F534552564F5F50419A
:104176005241444F005A4F59004552524F3A434F0D
:104186004D414E444F5F494E56414C49444F0046BF
:1041960049524D574152453A5A4F595F535445413A
:0A41A6004D3A76302E392E3000001D
:00000001FF
