:100000000C9481000C94A9000C94A9000C949F0BF3
:100010000C949F0B0C949F0B0C94A9000C94E50975
:100020000C94A9000C94A9000C94A9000C94E30A68
:100030000C94A9000C94A9000C94A9000C94A9009C
:100040000C94990A0C94A9000C94670A0C94410A28
:100050000C94A9000C94A9000C94A9000C94A9007C
:100060000C94A90B0C94A9004E414E494E49545989
:10007000494E46CDCCCC3D0AD7233C17B7D1387773
:10008000CC2B329595E6241FB14F0A000020410089
:1000900000C84200401C4620BCBE4CCA1B0E5AAED3
:1000A000C59D7400000000240027002A0000000005
:1000B00000230026002900000000080002010000C3
:1000C0000304070000000000000000010204081003
:1000D00020408001020408102001020408102000C2
:1000E000000000250028002B00040404040404047C
:1000F0000402020202020203030303030302F60CDA
:10010000AF1511241FBECFEFD8E0DEBFCDBF14E086
:10011000A0E0B1E0E2E5F8E302C005900D92AC305A
:10012000B107D9F725E0ACE0B4E001C01D92AD39CC
:10013000B207E1F710E0C0E8D0E004C02197FE016B
:100140000E94EB19CF37D107C9F70E94640D0C94B8
:100150001C1C0C9400000895AF92BF92CF92DF92C6
:10016000EF92FF920F931F93CF93DF936C017B016C
:100170008B01040F151FEB015E01AE18BF08C017FD
:10018000D10759F06991D601ED91FC910190F08170
:10019000E02DC6010995892B79F7C501DF91CF9133
:1001A0001F910F91FF90EF90DF90CF90BF90AF9095
:1001B0000895FC01538D448D252F30E0842F90E06D
:1001C000821B930B541710F0CF9608950197089552
:1001D000FC01918D828D981761F0A28DAE0FBF2F1B
:1001E000B11D5D968C91928D9F5F9F73928F90E071
:1001F00008958FEF9FEF0895FC01918D828D9817E0
:1002000031F0828DE80FF11D858D90E008958FEF1C
:100210009FEF0895FC01918D228D892F90E0805CE5
:100220009F4F821B91098F73992708958BEA94E061
:100230000E940A0121E0892B09F420E0822F089511
:1002400080E090E0892B29F00E94160181110C9426
:1002500000000895FC01A48DA80FB92FB11DA35A69
:10026000BF4F2C91848D90E001968F739927848FD6
:10027000A689B7892C93A089B1898C9183708064F9
:100280008C93938D848D981306C00288F389E02D9A
:1002900080818F7D80830895EF92FF920F931F934B
:1002A000CF93DF93EC0181E0888F9B8D8C8D981329
:1002B0001AC0E889F989808185FF15C09FB7F89435
:1002C000EE89FF896083E889F98980818370806481
:1002D00080839FBF81E090E0DF91CF911F910F91CC
:1002E000FF90EF900895F62E0B8D10E00F5F1F4FDB
:1002F0000F731127E02E8C8D8E110CC00FB607FCEA
:10030000FACFE889F989808185FFF5CFCE010E9477
:100310002A01F1CFEB8DEC0FFD2FF11DE35AFF4FBA
:10032000F0829FB7F8940B8FEA89FB898081806205
:10033000CFCFCF93DF93EC01888D8823B9F0AA89C2
:10034000BB89E889F9898C9185FD03C0808186FD90
:100350000DC00FB607FCF7CF8C9185FFF2CF8081DF
:1003600085FFEDCFCE010E942A01E9CFDF91CF9129
:100370000895833081F028F4813099F08230A9F01B
:1003800008958730A9F08830C9F08430B1F48091A5
:1003900080008F7D03C0809180008F7780938000E4
:1003A000089584B58F7784BD089584B58F7DFBCF84
:1003B0008091B0008F778093B00008958091B00055
:1003C0008F7DF9CFCF93DF93282F30E0F901E954E7
:1003D000FF4F8491F901E553FF4FD491F901E751A3
:1003E000FF4FC491CC23A1F081110E94B901EC2FE1
:1003F000F0E0EE0FFF1FE355FF4FA591B491EC9194
:10040000ED2381E090E009F480E0DF91CF91089541
:1004100080E090E0FACF1F93CF93DF93282F30E056
:10042000F901E954FF4F8491F901E553FF4FD4914D
:10043000F901E751FF4FC491CC23A9F0162F811188
:100440000E94B901EC2FF0E0EE0FFF1FE152FF4FC9
:10045000A591B4918FB7F894EC91111108C0D09583
:10046000DE23DC938FBFDF91CF911F910895DE2BA8
:10047000F8CF9091060189130BC0EDEFF0E0E49105
:100480009FEF90930601E13049F028F0E23061F0EF
:1004900060E00C940B0210926E00FACF90916F0006
:1004A0009D7F90936F00F4CF909170009D7F90930B
:1004B000700091E09093B0009091B100987F9460AB
:1004C0009093B1001092B300E3CFCF93DF9390E00D
:1004D000FC01E553FF4F249187519F4FFC0184910C
:1004E0008823C9F090E0880F991FFC01ED55FF4F5C
:1004F000A591B491FC01E152FF4FC591D4916111D6
:100500000DC09FB7F8948C91209582238C9388819D
:10051000282328839FBFDF91CF910895623051F443
:100520009FB7F8943C91822F809583238C93E88128
:100530002E2BEFCF8FB7F894EC912E2B2C938FBFEF
:10054000EACF4F925F926F927F928F929F92AF927B
:10055000BF92CF92DF92EF92FF920F931F93CF93B0
:10056000DF9300D000D01F92CDB7DEB78C012A01F7
:100570003B01809106018C30C9F08F3F09F47FC0A8
:100580000F900F900F900F900F90DF91CF911F91D0
:100590000F91FF90EF90DF90CF90BF90AF909F9022
:1005A0008F907F906F905F904F900895EDEFF0E007
:1005B00084918D8387FDE4CF61E08CE00E94650229
:1005C0008D81882321F09D81923009F05CC1480122
:1005D000B12CA12C60E072E18AE790E0A5019801BE
:1005E0000E948B1829833A834B835C8369017A01CB
:1005F00081E0C81AD108E108F1089FEFC916D104BB
:10060000E104F10409F00CF413C160E472E48FE03A
:1006100090E0A50198010E948B1869017A0181E0A0
:10062000C81AD108E108F1089D81923009F098C0FC
:100630008FEFC816D104E104F10409F00CF4DDC118
:1006400060E970ED83E090E0A50198010E948B18AD
:1006500069017A0191E0C91AD108E108F1088FEF28
:10066000C816D104E104F10411F00CF0A3C183E039
:100670009091B100987F892B8093B100E1C08CE00C
:1006800080930601EDEFF0E094919D839F3F09F484
:1006900077CF913029F158F0923009F43FC08D8125
:1006A00087FD6ECF61E08CE00E9465028CCF14BCA8
:1006B00015BC84B5826084BD85B5816085BDE5EFDC
:1006C000F0E0E491F0E0EE0FFF1FE152FF4F859163
:1006D0009491E7EDF0E0E491E0939E041D826CCFED
:1006E0001092800010928100809181008860809338
:1006F000810080918100816080938100E5EFF0E0CE
:10070000E491F0E0EE0FFF1FE152FF4F85919491CD
:10071000E7EDF0E0E491E0939D044ECF1092B0003D
:100720001092B1008091B00082608093B0008091FF
:10073000B10081608093B100E5EFF0E0E491F0E07A
:10074000EE0FFF1FE152FF4F8591949190939C040F
:1007500080939B04E7EDF0E0E491E0939A042CCFC2
:100760009FEFC916D104E104F10409F00CF489C02B
:1007700068E478EE81E090E0A50198010E948B1872
:1007800069017A0181E0C81AD108E108F1089D8168
:10079000992309F428C19FEFC916D104E104F1049B
:1007A00009F00CF41EC162E17AE780E090E0A50157
:1007B00094010E948B1869017A0181E0C81AD1085E
:1007C000E108F1089D81992309F4EBC08FEFC81669
:1007D000D104E104F10411F008F0BFC086E048CF75
:1007E00064E274EF80E090E0A50194010E948B1810
:1007F00069017A0181E0C81AD108E108F10885E0B1
:100800009FEFC916D104E104F10409F008F430CFD8
:1008100062E17AE780E090E0A50194010E948B18E4
:1008200069017A0191E0C91AD108E108F108CECF37
:1008300081E09D8191111CCF95B5987F892B85BD55
:100840002FEF3FEFA901411451046104710409F035
:1008500043C09D81913009F45EC0923009F46DC0AF
:1008600091118ECEC7BC2093A7043093A804409367
:10087000A9045093AA0480916E00826080936E0058
:100880007FCE82E0D6CFB12CA12C60E072E18AE766
:1008900090E0A50198010E948B1869017A0181E01E
:1008A000C81AD108E108F108C114D10491E0E906A1
:1008B000F10404F591E08D81813011F68091810081
:1008C000887F892B809381002FEF3FEFA90141148E
:1008D000510461047104F9F0D801AA0FBB1FA301F0
:1008E00092010E94AA1828EE33E040E050E00E94F6
:1008F000F418AFCF68E478EE81E090E0A5019801AC
:100900000E948B1869017A0181E0C81AD108E108B8
:10091000F10893E0D0CFD0928900C0928800209354
:10092000A3043093A4044093A5045093A60480919B
:100930006F00826080936F0023CEC092B30020933B
:100940009F043093A0044093A1045093A20480918B
:10095000700082608093700013CEC980DA80EB80D3
:10096000FC809AE0F594E794D794C7949A95D1F7D0
:1009700091E0C91AD108E108F10887E079CEC98071
:10098000DA80EB80FC808AE0F594E794D794C794F2
:100990008A95D1F791E0C91AD108E108F10885E0FC
:1009A0004BCF8FEFC816D104E104F10409F038F7FA
:1009B00084E042CF68E478EE81E090E0A501980100
:1009C0000E948B1869017A0191E0C91AD108E108E7
:1009D000F1088FEFC816D104E104F10411F00CF016
:1009E000FFCE84E045CE8FEFC816D104E104F104B8
:1009F00011F00CF0D8CE83E01FCF82E039CE3FB7A4
:100A0000F8948091850490918604A0918704B09118
:100A1000880426B5A89B05C02F3F19F00196A11D9B
:100A2000B11D3FBFBA2FA92F982F8827BC01CD0138
:100A3000620F711D811D911D42E0660F771F881F97
:100A4000991F4A95D1F708958F929F92AF92BF92C6
:100A5000CF92DF92EF92FF924B015C010E94FF0464
:100A60006B017C010E94FF046C197D098E099F09AE
:100A7000683E734081059105A8F321E0821A910830
:100A8000A108B10888EEC80E83E0D81EE11CF11C55
:100A900081149104A104B10429F7FF90EF90DF9035
:100AA000CF90BF90AF909F908F9008952FB7F894FC
:100AB00060918104709182048091830490918404F8
:100AC0002FBF0895DC01EC91EC3090F511968C91DC
:100AD000119728E830E0281B310987FD3395220F54
:100AE000331F220F331F6217730784F012968C9105
:100AF00028E532E0281B310987FD3395220F331F8B
:100B0000220F331F621773070CF49B012250310927
:100B1000220F331F4FB7F8948E2F90E0FC01EE0F99
:100B2000FF1FE80FF91FE85BFA4F328321834FBFA5
:100B30000895CF92DF92EF92FF92CF93DF93EC0173
:100B4000603282E07807CCF5653B710514F064EB08
:100B500070E0898128E830E0281B310987FD339552
:100B6000220F331F220F331F6901330FEE08FF08D6
:100B70008A8128E532E0281B310987FD3395220F51
:100B8000331F220F331F032E000C440B550B2C195F
:100B90003D094E095F09DB0177FF02C0B0E0A0E02C
:100BA0000E94B51824EB30E040E050E00E948B1822
:100BB000C20ED31EE41EF51EB601CE01DF91CF9109
:100BC000FF90EF90DF90CF900C946205209133045A
:100BD000260F3327331F21323105ECF420915704BF
:100BE000FC0190E080E0243069F082E00895A0915B
:100BF00033042191AC014D5E5B4FA40FB52FB11DA5
:100C00002C930196861798F380913304680F6093B4
:100C1000330480E0089581E0089508958FEF9FEFF9
:100C200008958FEF9FEF089580910C0490E09195C7
:100C3000819591090895CF93DF93CB01EA01642F49
:100C40000E94E605CE01DF91CF910895CF93DF9307
:100C50001F92CDB7DEB7698361E0CE0101960E9495
:100C6000E60581E090E00F90DF91CF91089590E04C
:100C700080E00895EF92FF920F931F93CF93DF933D
:100C8000A3E7B5E0FD0150E040E025812223A9F073
:100C9000238134812817390781F486E0849FE0019D
:100CA000859FD00D1124CD58DA4FCE01DF91CF9121
:100CB0001F910F91FF90EF9008954F5F5F4F369611
:100CC0004630510511F710E000E015962C9115976C
:100CD000211167C026E0209FE001219FD00D112443
:100CE000CD58DA4F9C838B8321E02D8328812C30D3
:100CF000E0F67C0161E00E9465028881282F30E0E7
:100D0000F901EE0FFF1FE20FF31FE85BFA4F2E2DE4
:100D10002F739081907C922B908319821A822CE001
:100D2000622F0E94CB19829FB001112430E020E095
:100D3000AB01420F531FFA01EE0FFF1FE40FF51F27
:100D4000E85BFA4F908196FD16C02F5F3F4F2C3025
:100D5000310571F781110FC01092800082E08093FD
:100D600081001092850010928400B19A80916F00EA
:100D7000826080936F0086E0809FF001819FF00D7C
:100D80001124ED58FA4FE0818E2F90E0FC01EE0F18
:100D9000FF1FE80FF91FE85BFA4F808180648083B2
:100DA00084CF0F5F1F4F16960630110509F08DCFC7
:100DB000D0E0C0E07ACFFC0101900020E9F7319744
:100DC000AF01481B590BBC018BEA94E00C94AC00BA
:100DD0008F929F92AF92BF920F931F93CF93DF9307
:100DE000CDB7DEB7A1970FB6F894DEBF0FBECDBF6B
:100DF00019A2423008F44AE08E010F5D1F4F842E85
:100E0000912CB12CA12CA50194010E94F418E62F7D
:100E1000B901CA01EA30F4F4E05DD801EE938D0126
:100E2000232B242B252B79F790E080E0109719F0E5
:100E3000CD010E94DB06A1960FB6F894DEBF0FBE6F
:100E4000CDBFDF91CF911F910F91BF90AF909F9039
:100E50008F900895E95CE1CFCF93DF930E94DB068A
:100E6000EC018FE191E00E94DB068C0F9D1FDF916A
:100E7000CF910895FC0124813581232B39F421E0A1
:100E8000FB018081882349F020E007C080819181A7
:100E90000E94EF1B21E0892BB9F7822F0895FC01F6
:100EA00080819181009711F00C94B71560E070E09B
:100EB000CB010895AF92BF92CF92DF92EF92FF9253
:100EC0000F931F93CF93DF93DC01CD90DC901197AC
:100ED000C114D10439F01496CD91DC918C017601C6
:100EE000209761F4DF91CF911F910F91FF90EF90C8
:100EF000DF90CF90BF90AF90089575015701BFEF7D
:100F0000AB1ABB0AF7018081082E000C990B0E94D6
:100F10004317892B91F72197CC0DDD1D8881082E71
:100F2000000C990B0E944317892B29F0CE15DF0581
:100F300010F02197F3CFAE014F5F5F4F4E195F095D
:100F4000D80115965C934E931497CE14DF0420F4C9
:100F5000B701C6010E94DB1BD801ED91FC911197EE
:100F600014968D919C91E80FF91F1082BBCFCF93FF
:100F7000DF93DC011496ED91FC916E177F0710F55D
:100F80009F01261B370B4217530708F49A01DB0118
:100F9000EC0188819981E21BF30BFD83EC83AF01A7
:100FA000461B570B260F371FBC01620F731F8A0F9A
:100FB0009B1F0E940D1CE881F9818C819D81E80FA7
:100FC000F91F1082DF91CF910895CF93DF93FC0139
:100FD00024813581232B79F0C081D181062E000C2C
:100FE000770BCE010E94E41B009729F08C1B9D0B10
:100FF000DF91CF9108958FEF9FEFFACFFB014481EE
:101000005581FC01248135812417350778F08081D2
:101010009181009759F0FB01608171816115710523
:1010200029F00E94FF1B21E0892B09F020E0822F8C
:1010300008950F931F93CF93DF938C01EB01FC0175
:10104000808191810097E1F0688179816115710556
:10105000A9F0428153812C813D814217530770F0E2
:101060000E94F81B8C819D81F801958384831D82E9
:101070001C82DF91CF911F910F9108950E948D1ACC
:1010800088819981F801918380838A819B819383F0
:1010900082838C819D8195838483198218821B822F
:1010A0001A82E5CFCF93DF93EC0188819981009775
:1010B00011F00E948D1A198218821D821C821B82D7
:1010C0001A82DF91CF910895FC0180819181009770
:1010D00011F00C948D1A08950F931F93CF93DF9303
:1010E000EC0188819981009759F02A813B8126176C
:1010F000370730F081E0DF91CF911F910F91089574
:101100008B016F5F7F4F0E94161B009759F09983E8
:1011100088831B830A832C813D81232B59F7FC0193
:101120001082E8CF80E0E7CF0F931F93CF93DF9338
:1011300000D0CDB7DEB789831A8200917105109176
:1011400072050F5F1F4FB8018DE695E00E946C0895
:101150008823A1F020916D0530916E058091710575
:1011600090917205BE016F5F7F4F820F931F0E94A7
:10117000F81B109372050093710581E00F900F909A
:10118000DF91CF911F910F910895EF92FF920F93EE
:101190001F93CF93DF93EC017B018A01BA010E9478
:1011A0006C0881110BC0CE010E945208CE01DF9164
:1011B000CF911F910F91FF90EF9008951D830C83A5
:1011C000B701888199810E94F81BF0CFFB01019043
:1011D0000020E9F73197AF01461B570B0C94C50867
:1011E000CF93DF93EC01FB018617970749F06081ED
:1011F00071816115710541F0448155810E94C508D6
:10120000CE01DF91CF9108950E945208F9CFFC01E1
:10121000118210821382128215821482FB010190C6
:101220000020E9F73197AF01461B570B0C94C50816
:10123000AF92BF92CF92DF92EF92FF920F931F93E4
:10124000CF93DF936C015B017A0189012417350785
:1012500020F48F2D7901042F182F61E271E0C6016F
:101260000E940709D5011496CD91DC91EC16FD067C
:10127000E0F40C171D0708F4E801D501ED91FC918D
:101280001197EC0FFD1F108110826D917C916E0DF6
:101290007F1DC60161157105A1F00E94E608F501E8
:1012A00080819181C80FD91F1883C601DF91CF912A
:1012B0001F910F91FF90EF90DF90CF90BF90AF9074
:1012C00008950E945208EBCFCF93DF93EC01FB010E
:1012D000248135810E941809CE01DF91CF910895B4
:1012E0001F93CF93DF9385ED8093BC0080910F0413
:1012F00090911004A0911104B09112040796A11DC1
:10130000B11D23E0B695A795979587952A95D1F7B6
:101310002091BC0024FD03C01092570452C040919C
:101320000F04509110046091110470911204452B28
:10133000462B472B69F30097A105B10541F02AE23E
:101340002A95F1F700C00197A109B109E1CF809179
:101350000E04C1E0C0930D04882399F1D091B80028
:101360001091BA008091BC008A7B8093BC0060E041
:1013700082E10E940B0260E083E10E940B02109266
:101380005704C09359041092580461E082E10E940E
:101390000B0261E083E10E940B028091B9008E7F15
:1013A0008093B9008091B9008D7F8093B90088E463
:1013B0008093B80085E48093BC001093BA00D0936A
:1013C000B800DF91CF911F9108951F920F920FB631
:1013D0000F9211242F933F934F935F936F937F93BB
:1013E0008F939F93AF93BF93EF93FF9380919F044D
:1013F0009091A004A091A104B091A204892B8A2B02
:101400008B2BD1F190919A04E0919B04F0919C0474
:1014100080818927808380919F049091A004A0916E
:10142000A104B091A204181619061A061B069CF412
:1014300080919F049091A004A091A104B091A20476
:101440000197A109B10980939F049093A004A093F0
:10145000A104B093A204FF91EF91BF91AF919F912E
:101460008F917F916F915F914F913F912F910F904D
:101470000FBE0F901F901895809106010E943902AF
:10148000EACF1F920F920FB60F9211242F933F9322
:101490004F935F936F937F938F939F93AF93BF937C
:1014A000EF93FF938BEA94E00E942A01FF91EF9162
:1014B000BF91AF919F918F917F916F915F914F916C
:1014C0003F912F910F900FBE0F901F9018951F9274
:1014D0000F920FB60F9211242F938F939F93EF9338
:1014E000FF93E091BB04F091BC048081E091C104C2
:1014F000F091C20482FD1BC090818091C4048F5F73
:101500008F732091C504821741F0E091C404F0E08C
:10151000E555FB4F958F8093C404FF91EF919F9108
:101520008F912F910F900FBE0F901F901895808173
:10153000F4CF1F920F920FB60F9211242F933F9367
:101540008F939F93AF93BF93809181049091820476
:10155000A0918304B09184043091800423E0230F90
:101560002D3758F50196A11DB11D2093800480935D
:10157000810490938204A0938304B09384048091A7
:10158000850490918604A0918704B0918804019607
:10159000A11DB11D8093850490938604A0938704B8
:1015A000B0938804BF91AF919F918F913F912F91FC
:1015B0000F900FBE0F901F90189526E8230F0296EC
:1015C000A11DB11DD2CF1F920F920FB60F92112401
:1015D0002F933F934F935F936F937F938F939F933B
:1015E000AF93BF93CF93DF93EF93FF9380917F04EB
:1015F000C0916C05D0E087FF24C010928500109246
:10160000840080917F048F5F80937F0480917F04AA
:10161000082E000C990B8C179D0724F480917F04F1
:101620008C30C4F1809184009091850004968034C0
:101630009C4908F47AC080918400909185000496BA
:1016400076C080917F04082E000C990B8C179D07A3
:10165000C4F6E0917F048E2FEE0F990BFC01EE0F84
:10166000FF1FE80FF91FE85BFA4F808186FFC9CFA3
:10167000E0917F048E2FEE0F990BFC01EE0FFF1F00
:10168000E80FF91FE85BFA4F808160E08F730E94DA
:101690000B02B7CF2091840030918500E0917F0448
:1016A0008E2FEE0F990BFC01EE0FFF1FE80FF91FB5
:1016B000E85BFA4F81819281820F931F909389009A
:1016C00080938800E0917F048E2FEE0F990BFC0130
:1016D000EE0FFF1FE80FF91FE85BFA4F808186FFCE
:1016E00011C0E0917F048E2FEE0F990BFC01EE0FDD
:1016F000FF1FE80FF91FE85BFA4F808161E08F73ED
:101700000E940B02FF91EF91DF91CF91BF91AF91BA
:101710009F918F917F916F915F914F913F912F9109
:101720000F900FBE0F901F90189580E49CE9909346
:101730008900809388008FEF80937F04E3CF1F920E
:101740000F920FB60F9211240F900FBE0F901F90A3
:1017500018951F920F920FB60F9211242F933F935B
:101760004F935F936F937F938F939F93AF93BF93A9
:10177000EF93FF938091B900887F803609F44AC0C7
:10178000F0F5883209F4A5C018F5803109F499C044
:10179000B8F4882309F4F5C0883009F492C0FF91A9
:1017A000EF91BF91AF919F918F917F916F915F91D9
:1017B0004F913F912F910F900FBE0F901F90189552
:1017C000883109F486C0803251F78093560414C0E2
:1017D000803409F49BC040F48033B9F38833F9F6C0
:1017E0008093560485ECAEC0803509F483C08835FB
:1017F00009F494C0883499F60E947009D0CF8839D2
:1018000009F48AC038F5883729F050F4883611F089
:10181000803729F683E0809357041092550455C011
:10182000883809F479C0803919F0803809F0B7CFC9
:1018300080915504803208F06FC0E091550481E03A
:101840008E0F809355048091BB00F0E0EB5CFB4F62
:1018500080833BC0803B39F0D0F4803A09F477C0F4
:10186000883A09F09CCF84E08093570410923404A6
:1018700010923304F0E0E0E0099580913304811187
:101880000FC081E0809333041092130409C0803CA0
:1018900009F4A8CF883C09F4A5CF883B09F07FCF95
:1018A000E091340481E08E0F80933404F0E0ED5E2B
:1018B000FB4F80818093BB0090913404809133046E
:1018C00029C080917C048093BB0085EC8093BC0090
:1018D00066CF90917B0480917A04981758F5E09137
:1018E0007B0481E08E0F80937B04F0E0E65AFB4F8F
:1018F0008081E9CFE0917B0481E08E0F80937B04AF
:101900008091BB00F0E0E65AFB4F808390917B040E
:1019100080917A049817C8F285E8D8CFE0917B04CB
:1019200081E08E0F80937B048091BB00F0E0E65A4B
:10193000FB4F80838091590481115ECF81E08093B9
:10194000580484EA8093BC001092570428CF85EC99
:101950008093BC001092570480915504803230F47B
:10196000E0915504F0E0EB5CFB4F10826091550470
:1019700070E085E394E0F0E0E0E009951092550412
:101980000ECF1092560438CFCF92DF92EF92FF9293
:10199000CF93DF936C01990FEE08FF08F7FE1FC08D
:1019A0006DE28BEA94E00E944C01EC0166277727F8
:1019B000CB016C197D098E099F094AE00E94E80657
:1019C000C80FD91F8FE191E00E94DB068C0F9D1F8D
:1019D000DF91CF91FF90EF90DF90CF9008954AE094
:1019E000C701B6010E94E806EC01ECCF1092AE04EC
:1019F0001092AD0488EE93E0A0E0B0E08093AF04D5
:101A00009093B004A093B104B093B20481E191E04B
:101A10009093AC048093AB0485EC90E09093B80471
:101A20008093B70484EC90E09093BA048093B90457
:101A300080EC90E09093BC048093BB0481EC90E038
:101A40009093BE048093BD0482EC90E09093C00418
:101A50008093BF0486EC90E09093C2048093C1040D
:101A60001092C4041092C5041092C6041092C704C8
:101A7000E3E7F5E04FEF68EB7BE02FEF3FEF80917E
:101A80006C058C30F8F491E0980F90936C0580838E
:101A900090E0DC01AA0FBB1FA80FB91FA85BBA4FCB
:101AA00012967C936E931197348323831582369616
:101AB00085E0E739F80719F761E271E08DE695E016
:101AC0000C9407094083F0CFCF93DF93CDB7DEB7F7
:101AD000A4970FB6F894DEBF0FBECDBF789484B53F
:101AE000826084BD84B5816084BD85B5826085BD1A
:101AF00085B5816085BD80916E00816080936E00A8
:101B00001092810080918100826080938100809199
:101B1000810081608093810080918000816080934A
:101B200080008091B10084608093B1008091B0000A
:101B300081608093B00080917A00846080937A0005
:101B400080917A00826080937A0080917A0081602F
:101B500080937A0080917A00806880937A00109256
:101B6000C100E091BB04F091BC0482E08083E0916D
:101B7000B704F091B8041082E091B904F091BA046E
:101B80008FEC80831092C304E091BF04F091C004F5
:101B900086E08083E091BD04F091BE048081806185
:101BA0008083E091BD04F091BE04808188608083D1
:101BB000E091BD04F091BE04808180688083E09153
:101BC000BD04F091BE0480818F7D808361E08DE053
:101BD0000E94650282E291E00E942C0703E010E07F
:101BE00061E08DE00E940B0264E670E080E090E02E
:101BF0000E94240560E08DE00E940B0264E670E024
:101C000080E090E00E9424050150110949F761E04D
:101C10008DE00E940B0264EF71E080E090E00E9492
:101C2000240560E08DE00E940B0264EF71E080E02B
:101C300090E00E94240561E08DE00E940B0264EFB9
:101C400071E080E090E00E94240560E08DE00E9459
:101C50000B0264EF71E080E090E00E94240560E0F8
:101C60008DE00E940B02809199048823A9F00E94C4
:101C70005605009195041091960420919704309197
:101C80009804601771078207930730F01092990447
:101C900086E391E00E942C07C0900401D0900501DA
:101CA0002FEFC216D20609F455C0E0900201F09061
:101CB00003013FEFE316F30609F44CC00091000165
:101CC00010910101E016F10609F444C00E94560586
:101CD000409091045090920460909304709094040A
:101CE00064197509860997096431710581059105A3
:101CF00088F10E945605609391047093920480933A
:101D00009304909394040E151F050CF043C00B5FD1
:101D10001F4FE016F1060CF443C01093010100932D
:101D20000001C6010E943A060091000110910101D4
:101D3000009719F0B8010E949905E016F10651F4D8
:101D40008FEF9FEF909303018093020180E491E075
:101D50000E942C07BB24B39488E3682E712C9FEA61
:101D6000892E912C8BEA94E00E940A01892B09F4B8
:101D700097C68BEA94E00E94E800182F8C33A9F4F0
:101D800061E271E08DE695E00E94E6088CE30E9436
:101D90009408E8CF055011090E151F050CF0BDCFB2
:101DA000F0920101E0920001BCCF80917105909109
:101DB0007205892BB9F2812F0E9494081E3391F687
:101DC00018A21F8E1AA219A21CA21BA26DE675E012
:101DD000CE014F960E94F00841E050E070E060E0D4
:101DE000CE014F960E94B7076BA17CA1615071098B
:101DF0004FEF5FEFCE014F960E94B7076AE3CE0127
:101E00004F960E94E5078C0161E271E0CE01499690
:101E10000E94070961E271E0CE0143960E94070922
:101E20000F3F100769F5BE01615E7F4FCE014996F5
:101E30000E94F00861E271E0CE0143960E94E6083C
:101E4000CE0149960E945A07CE0143960E945A0736
:101E50006EE973E0CE0149960E943A07882309F49F
:101E600057C0CE0143960E944F076B01CB010E94E1
:101E70003A06009781F58AE491E00E942C07BCC1E4
:101E8000980150E040E0BE01615E7F4FCE010196B7
:101E90000E941809BE016F5F7F4FCE0149960E94D4
:101EA0001908CE0101960E946408A8014F5F5F4F98
:101EB000BE01615E7F4FCE0101960E946409BE01A2
:101EC0006F5F7F4FCE0143960E941908CE010196A5
:101ED0000E946408B5CFD0920501C092040190928F
:101EE00001018092000110920301109202016FEA39
:101EF00070E00E9499050E945605609391047093CA
:101F00009204809393049093940484E691E0B5CF77
:101F10006AE771E0CE0149960E943A07882341F1B1
:101F2000CE0143960E944F076B01CB010E943A06F7
:101F3000009709F4A0CFD0920501C092040110923D
:101F4000010110920001909203018092020170E061
:101F500060E00E9499050E94560560939104709379
:101F6000920480939304909394048CE791E085CF3E
:101F70006CE971E0CE0149960E943A078823C1F1CD
:101F80006CE2CE0143960E94E5078C019C0150E073
:101F900040E0BE016D5E7F4FCE0101960E941809A0
:101FA000CE0101960E944F076B01CE0101960E945F
:101FB0006408A8014F5F5F4FBE016D5E7F4FCE0189
:101FC00001960E946409CE0101960E944F071B01F1
:101FD000CE0101960E946408C6010E943A0600974D
:101FE00009F40AC1B1010E94620583E991E045CF7D
:101FF00068EA71E0CE0149960E943A078823C1F150
:102000006CE2CE0143960E94E5078C019C0150E0F2
:1020100040E0BE016D5E7F4FCE0101960E9418091F
:10202000CE0101960E944F076B01CE0101960E94DE
:102030006408A8014F5F5F4FBE016D5E7F4FCE0108
:1020400001960E946409CE0101960E944F071B0170
:10205000CE0101960E946408C6010E943A060097CC
:1020600009F4CAC0B1010E9462058FE991E005CF71
:1020700064E372E0CE0149960E943A07882389F012
:10208000CE0143960E944F07CB010E943A0600976B
:1020900009F4B2C06CED75E00E9462058BEA91E034
:1020A000ECCE6BED71E0CE0149960E943A07882391
:1020B00009F434C16CE2CE0143960E94E5078C011D
:1020C0008F3F980709F427C19C0150E040E0BE0112
:1020D0006D5E7F4FCE0101960E941809CE010196D8
:1020E0000E944F07F62ECE0101960E946408A801B7
:1020F0004F5F5F4FBE016D5E7F4FCE0101960E9424
:102100006409CE0101960E944F07162FCE01019659
:102110000E94640861E08F2D0E94650260E0812FBB
:102120000E9465021F1104C061E0812F0E946502B8
:1021300060E08F2D0E940B0283E090E00197F1F7A1
:1021400061E08F2D0E940B0283E290E00197F1F78E
:1021500060E08F2D0E940B021F1104C060E0812FF0
:102160000E9465020E94FF046B017C01812F0E9486
:10217000E201892B59F40E94FF046C197D098E0934
:102180009F0961327E448105910580F30E94FF041E
:102190006B017C01812F0E94E201892B59F00E9482
:1021A000FF046C197D098E099F0961327E44810507
:1021B000910580F30E94FF04CB018C199D09B301A6
:1021C0000E94D71990E080E00E946B176B017C01A0
:1021D0008BEB91E00E94DB06A7019601C701B601D7
:1021E0000E94C6198823D9F086EC91E00E94DB0694
:1021F0008FE191E00E94DB06CE0143960E946408C5
:10220000CE0149960E946408CE014F960E94640850
:1022100061E271E08DE695E00E94E608A3CD2FEF24
:102220003FEF4FE75FE7C701B6010E94C619811172
:102230000DC02FEF3FEF4FE75FE7C701B6010E94E8
:10224000641718161CF48AEC91E0D0CF2FEF3FEF03
:102250004FE75FE4C701B6010E94C11918161CF4CC
:102260008EEC91E0C3CF2FEF3FEF4FE75FECC7015C
:10227000B6010E94641787FDF3CF2AE037ED43EAE9
:102280005BE3C701B6010E9426191B012C010E94C5
:1022900092196B017C010E9469179B01AC01C2017C
:1022A000B1010E9425191B012C014AE0C701B601AA
:1022B0000E94E8066EE28BEA94E00E944C0120E066
:1022C00030E040E251E4C201B1010E94CA171B0193
:1022D0002C010E9492196B01F12CE12C4AE0C701FC
:1022E000B6010E94E806C701B6010E9469179B016A
:1022F000AC01C201B1010E94251920E030E040E2AA
:1023000051E40E94CA170E94921990E080E04AE0CE
:102310000E94E8066DCF82ED91E0AFCD65EE71E0F1
:10232000CE0149960E943A07882309F459C0CE018C
:1023300043960E945A0762EF71E0CE0101960E9417
:102340000709BE016F5F7F4FCE0143960E94FE07D3
:1023500010E0882321F162EF71E0CE0107960E9420
:1023600007092F89388D4B855C852417350790F038
:102370008B899C89009771F06F8178856115710553
:1023800049F0241B350B820F931F0E94EF1B11E0B5
:10239000892B09F010E0CE0107960E946408CE0157
:1023A00001960E946408112391F041E050E070E032
:1023B00060E0CE0143960E94B7076F89788D615027
:1023C00071094FEF5FEFCE0143960E94B7074F8927
:1023D000588D6B897C898BEA94E00E94AC0008CF11
:1023E00061EE71E0CE0149960E943A078823E9F137
:1023F0006CE2CE0143960E94E5078C0184EF91E0E8
:102400000F3F100709F439CD980150E040E0BE01BC
:102410006D5E7F4FCE0107960E941809A8014F5F9D
:102420005F4FBE016D5E7F4FCE0101960E94640931
:10243000CE0107960E945A07CE0101960E945A07C4
:10244000CE0107960E944F076B01CE0101960E94B4
:102450004F07AB01BC0166277727C6010E94A10286
:102460008AE092E00E942C07E9C168E172E0CE01A7
:1024700049960E943A07882301F1CE0143960E94B3
:102480005A07CE0143960E944F076B017C018CE0F6
:102490000E943902B09299040E945605C60ED71EBA
:1024A000E81EF91EC0929504D0929604E09297041B
:1024B000F09298048EE192E0E0CC61E372E0CE010C
:1024C00049960E943A07882369F0CE0143960E94FC
:1024D0004F07AB01BC0188EE93E00E94A1028EE29F
:1024E00092E0CBCC68E472E0CE0149960E943A07B4
:1024F000882309F473C06CE2CE0143960E94E5077D
:102500008C0186E392E00F3F100709F4B6CC9801E6
:1025100050E040E0BE016D5E7F4FCE010D960E94FF
:102520001809A8014F5F5F4FBE016D5E7F4FCE015E
:1025300007960E946409CE010D960E945A07CE01AB
:1025400007960E945A076FE473E0CE0101960E943D
:102550000709BE016F5F7F4FCE010D960E94FE07F7
:10256000182FCE0101960E946408112389F141E0E1
:1025700050E0BE01635F7F4FCE0101960E94640967
:10258000CE0101960E944F078B01CE0101960E9459
:10259000640866E572E0CE0107960E943A07FF24C0
:1025A000F3948111D2C26BE572E0CE0107960E94CE
:1025B0003A078111C9C28FE592E00E942C07CE0133
:1025C00007960E946408CE010D960E94640814CEFE
:1025D000CE010D960E944F078B01DBCF69E972E0B7
:1025E000CE0149960E943A07882309F4CAC06CE2DA
:1025F000CE0143960E94E5078C0187E892E00F3FE9
:10260000100709F43ACC980150E040E0BE016D5E3D
:102610007F4FCE010D960E941809A8014F5F5F4FB2
:10262000BE016D5E7F4FCE0107960E946409CE0108
:102630000D960E945A07CE0107960E945A076FE432
:1026400073E0CE0101960E940709BE016F5F7F4FC4
:10265000CE010D960E94FE07182FCE0101960E9412
:1026600064081123D9F141E050E0BE01635F7F4F60
:10267000CE0101960E946409CE0101960E944F0787
:102680008B01CE0101960E946408CE0107960E943C
:102690004F07562EE62EF72E0F3F100709F46EC097
:1026A000C62ED72E8FEFC816D10411F008F066C0E1
:1026B000402E61E0802F0E94650261E0802F0E9421
:1026C000650260E0E114F10429F0EFEFEE16F10489
:1026D00059F461E0802F0E940B022EC0CE010D96AE
:1026E0000E944F078B01D1CFF801FF27E954FF4F1C
:1026F000E491E33049F160F4E130D1F0E230F9F0F7
:1027000060E0F0E8EF16F1040CF061E0842DE3CF17
:10271000E73021F1E83051F1E43091F78091800009
:10272000806280938000D0928B00C0928A0004C0A7
:1027300084B5806884BD57BC83EA92E03ECF84B5FF
:10274000806284BD58BCF8CF8091800080688093FF
:102750008000D0928900C0928800EECF8091B000B6
:1027600080688093B0005092B300E6CF8091B000B3
:1027700080628093B0005092B400DECF86EA92E08F
:102780001CCF6CED72E0CE0149960E943A07882377
:1027900009F45EC06CE2CE0143960E94E5078C010D
:1027A0008AEC92E00F3F100709F467CB980150E0E4
:1027B00040E0BE016D5E7F4FCE0107960E94180972
:1027C000A8014F5F5F4FBE016D5E7F4FCE01019646
:1027D0000E946409CE0107960E945A07CE01019615
:1027E0000E945A07CE0107960E944F076B0169EEBF
:1027F00072E0CE0101960E943A0760E081110CC0A0
:102800006FEE72E0CE0101960E943A0762E08111FC
:1028100003C08CEF92E026CE34E1C316D104A8F4B5
:102820008C2D0E9465028C2D0E94E2018C018FE0AC
:1028300093E00E94DB06C8010E94C40CCE01019601
:102840000E946408CE010796C0CE8EE193E00ACEC6
:1028500065E473E0CE0149960E943A07882309F4A3
:1028600079C018861F821A8619861C861B86BE01AF
:102870006D5E7F4FCE0107960E94F008CE0107964D
:102880000E945A070F8118850115110569F0F8019A
:102890008081882349F0082E000C990B0E94D31BDD
:1028A000F80181938F01F3CF6EE973E0CE010196B9
:1028B0000E940709BE016F5F7F4FCE0107960E94FD
:1028C000FE07182FCE0101960E946408111111C055
:1028D0000FEF1FEFCE0107960E9464080F3F10070D
:1028E000B1F181E593E00E94DB06C8010E94C40CAF
:1028F00083CC41E050E0BE01695F7F4FCE0101967D
:102900000E946409CE0101960E944F076B01CE011F
:1029100001960E946408F8E0CF16D104C8F68C2D09
:102920009EE09C0D9E3008F4892F87708064809310
:102930007C0080917A00806480937A0080917A0094
:1029400086FDFCCF0091780010917900C3CF8FE510
:1029500093E093CA6CE773E0CE0149960E943A0770
:102960008823A9F166E572E0CE0143960E943A07FA
:1029700061E0811109C06BE572E0CE0143960E94CF
:102980003A07882339F060E08DE00E940B0283EA69
:1029900092E073CACE0143960E944F0786E893E007
:1029A000161617060CF069CA70938F0460938E0494
:1029B000B09290040E94560560938A0470938B0431
:1029C00080938C0490938D0410928904DCCF68E985
:1029D00073E0CE0149960E943A07882371F1CE0137
:1029E00043960E945A078B899C89C12CD12C760171
:1029F000009721F00E94B3156B017C01B0929904FD
:102A00000E9456051B012C0120E030E04AE754E407
:102A1000C701B6010E94CA170E949219260E371EDE
:102A2000481E591E209295043092960440929704B5
:102A30005092980480EA93E020CA62EB73E0CE01E2
:102A400049960E943A078823E9F0CE0143960E94F6
:102A50005A07CE0143960E944F076B017C01B0924A
:102A600099040E945605C60ED71EE81EF91EC09294
:102A70009504D0929604E0929704F09298048DEB1E
:102A800093E0FBC962ED73E0CE0149960E943A07DC
:102A9000882319F086ED93E0F0C98EEE93E0EDC93E
:102AA00080919004882309F442C000918E04109113
:102AB0008F0410161106DCF50E945605C0908A049A
:102AC000D0908B04E0908C04F0908D049B01AC01BD
:102AD0002C193D094E095F0969017A013CE2C316D0
:102AE00031E0D306E104F10410F160938A0470939D
:102AF0008B0480938C0490938D04F090890481E082
:102B0000F826F09289046F2D8DE00E940B02F110DF
:102B10000EC00150110910938F0400938E04012BF5
:102B200031F41092900486E391E00E942C0780E03B
:102B300090E0892B09F497C80E941601882309F4B4
:102B400092C80E9400008FC8F12C0F3F100709F4B3
:102B500032CD61E0802F0E9465026F2DBBCD8DE6E6
:102B600095E00C946408662777270C94F3151F935F
:102B7000FC0199278827BC01E89411911032E9F3F0
:102B8000193010F01E30C8F31B3251F01D3249F4D9
:102B9000689406C00E94DE15610F711D811D911D94
:102BA000119110531A30B0F33EF4909580957095C2
:102BB00061957F4F8F4F9F4F1F910895592F482F39
:102BC000372F262F660F771F881F991F660F771FD5
:102BD000881F991F620F731F841F951F660F771F31
:102BE000881F991F0895B0E0A0E0E9EFF5E10C948B
:102BF000C3185C017B016115710519F0DB018D9330
:102C00009C9385010F5F1F4FF501D0818D2F90E0C0
:102C10000E9443176C01892BB9F5DD32B9F50F5FBE
:102C20001F4FD5011196DC91C1E05801F1E0AF1AB8
:102C3000B10843E050E060E770E0C5010E944C1726
:102C4000892B69F5680182E0C80ED11C45E050E08F
:102C50006BE670E0C6010E944C17892B21F46801D5
:102C600097E0C90ED11CE114F10419F0D701CD92FF
:102C7000DC9260E070E080E89FEFC111FFC060E08F
:102C800070E080E89FE7FAC05801BBCFDB3229F43F
:102C900085010E5F1F4FF501D181C0E0C6CF43E033
:102CA00050E068E670E0C5010E944C17892BE9F0FE
:102CB000F80110E000E020E030E0A9015F01B0ED94
:102CC0008B2E8D0E89E08815C8F19C2E689491F8A2
:102CD0008C2F8870C2FF16C0811102C00F5F1F4F7A
:102CE0003196D501DC91C92DE9CFE114F10429F029
:102CF0000E5F1F4FF7011183008360E070E080ECEE
:102D00009FE7BCC0882311F001501109A5E0B0E095
:102D10000E94AA189B01AC01220F331F441F551FAC
:102D2000280D311D411D511D283999E939074907E1
:102D300099E15907A8F2C6609C2ED2CFAEEF8A1255
:102D400006C0C3FD3CC09C2E689493F8C9CFDF7DBC
:102D5000D534A9F580818D3239F4C061DF01129636
:102D6000818162E070E006C0DF018B32C1F3119611
:102D700061E070E080535D01A61AB70A8A30F8F46A
:102D8000E0E8CE16ECE0DE065CF4B601660F771FD5
:102D9000660F771FC60ED71ECC0CDD1CC80ED11CCB
:102DA0005D01FFEFAF1ABF0A8C9180538A30A8F102
:102DB000C4FF03C0D194C194D1080C0D1D1DC1FFE7
:102DC00009C0E114F10431F081E0A81AB108D7017B
:102DD000AD92BC92CA01B9010E946917C370C33099
:102DE00009F490584B015C0120E030E0A9010E94F9
:102DF0006417882309F440C0CFE9D0E017FF05C06D
:102E0000119501951109C7E8D0E06E01B8E1CB1A20
:102E1000D10880E2E82EF12C0FC0D501B1CFFE0120
:102E200025913591459154910E191F09C501B401A1
:102E30000E94CA174B015C01D501C4010E151F0584
:102E400074F72497F594E794CC16DD06A9F78A2F3A
:102E5000880F8B2F881F8F3F49F020E030E0A901B9
:102E6000C501B4010E946417811106C082E290E09E
:102E70009093980580939705C501B401CDB7DEB74F
:102E8000ECE00C94DF1891110C943718803219F093
:102E900089508550C8F70895FB01DC01415050402E
:102EA00088F08D9181341CF08B350CF4805E659137
:102EB00061341CF06B350CF4605E861B611171F39C
:102EC000990B0895881BFCCF0E94A61708F481E097
:102ED0000895E89409C097FB3EF49095809570950D
:102EE00061957F4F8F4F9F4F9923A9F0F92F96E956
:102EF000BB279395F695879577956795B795F111CB
:102F0000F8CFFAF4BB0F11F460FF1BC06F5F7F4F67
:102F10008F4F9F4F16C0882311F096E911C0772379
:102F200021F09EE8872F762F05C0662371F096E882
:102F3000862F70E060E02AF09A95660F771F881F51
:102F4000DAF7880F9695879597F90895990F0008F5
:102F5000550FAA0BE0E8FEEF16161706E807F9076B
:102F6000C0F012161306E407F50798F0621B730B06
:102F7000840B950B39F40A2661F0232B242B252B87
:102F800021F408950A2609F4A140A6958FEF811D2A
:102F9000811D08950E94DD170C9451180E9443185A
:102FA00038F00E944A1820F0952311F00C943A183A
:102FB0000C94401811240C9485180E94621870F328
:102FC000959FC1F3950F50E0551F629FF001729FCE
:102FD000BB27F00DB11D639FAA27F00DB11DAA1FDD
:102FE000649F6627B00DA11D661F829F2227B00D2A
:102FF000A11D621F739FB00DA11D621F839FA00DB5
:10300000611D221F749F3327A00D611D231F849F04
:10301000600D211D822F762F6A2F11249F5750405B
:103020009AF0F1F088234AF0EE0FFF1FBB1F661FD6
:10303000771F881F91505040A9F79E3F510580F09F
:103040000C943A180C9485185F3FE4F3983ED4F33F
:10305000869577956795B795F795E7959F5FC1F743
:10306000FE2B880F911D9695879597F908959927BE
:103070008827089597F99F6780E870E060E00895D9
:103080009FEF80EC089500240A9416161706180680
:103090000906089500240A9412161306140605065C
:1030A0000895092E0394000C11F4882352F0BB0FED
:1030B00040F4BF2B11F460FF04C06F5F7F4F8F4F50
:1030C0009F4F089557FD9058440F551F59F05F3F8B
:1030D00071F04795880F97FB991F61F09F3F79F03A
:1030E00087950895121613061406551FF2CF4695BC
:1030F000F1DF08C0161617061806991FF1CF86953E
:103100007105610508940895E894BB276627772721
:10311000CB0197F90895052E97FB1EF400940E94A9
:10312000A21857FD07D00E94F41807FC03D04EF4F4
:103130000C94A21850954095309521953F4F4F4FD4
:103140005F4F089590958095709561957F4F8F4F53
:103150009F4F08950E941619A59F900DB49F900D42
:10316000A49F800D911D11240895B7FF0C94AA18F7
:103170000E94AA18821B930B08952F923F924F92A0
:103180005F926F927F928F929F92AF92BF92CF92F7
:10319000DF92EF92FF920F931F93CF93DF93CDB700
:1031A000DEB7CA1BDB0B0FB6F894DEBF0FBECDBF78
:1031B00009942A88398848885F846E847D848C8449
:1031C0009B84AA84B984C884DF80EE80FD800C8152
:1031D0001B81AA81B981CE0FD11D0FB6F894DEBF35
:1031E0000FBECDBFED010895A1E21A2EAA1BBB1B95
:1031F000FD010DC0AA1FBB1FEE1FFF1FA217B307C3
:10320000E407F50720F0A21BB30BE40BF50B661FD8
:10321000771F881F991F1A9469F76095709580959C
:1032200090959B01AC01BD01CF010895A29FB00113
:10323000B39FC001A39F700D811D1124911DB29FEA
:10324000700D811D1124911D08955058BB27AA2788
:103250000E943D190C9451180E94431838F00E94A6
:103260004A1820F039F49F3F19F426F40C944018C2
:103270000EF4E095E7FB0C943A18E92F0E946218CF
:1032800058F3BA17620773078407950720F079F49B
:10329000A6F50C9484180EF4E0950B2EBA2FA02DF1
:1032A0000B01B90190010C01CA01A0011124FF27F3
:1032B000591B99F0593F50F4503E68F11A16F040EE
:1032C000A22F232F342F4427585FF3CF46953795ED
:1032D0002795A795F0405395C9F77EF41F16BA0BB2
:1032E000620B730B840BBAF09150A1F0FF0FBB1F60
:1032F000661F771F881FC2F70EC0BA0F621F731FA9
:10330000841F48F4879577956795B795F7959E3F05
:1033100008F0B0CF9395880F08F09927EE0F979596
:10332000879508950E946A1888F09F5798F0B92FE2
:103330009927B751B0F0E1F0660F771F881F991FEA
:103340001AF0BA95C9F714C0B13091F00E948418F0
:10335000B1E008950C948418672F782F8827B85F00
:1033600039F0B93FCCF3869577956795B395D9F742
:103370003EF490958095709561957F4F8F4F9F4F4C
:1033800008950E94A61708F48FEF08950E94A617CB
:10339000880B990B0895991B79E004C0991F961723
:1033A00008F0961B881F7A95C9F780950895AA1B87
:1033B000BB1B51E107C0AA1FBB1FA617B70710F020
:1033C000A61BB70B881F991F5A95A9F78095909552
:1033D000BC01CD010895EE0FFF1F0590F491E02D83
:1033E00009940F931F93CF93DF938230910510F4CC
:1033F00082E090E0E0919B05F0919C0530E020E0B8
:10340000B0E0A0E0309799F42115310509F44AC0E5
:10341000281B390B24303105D8F58A819B81611531
:10342000710589F1FB0193838283FE0111C0408104
:1034300051810281138148175907E0F04817590755
:1034400099F4109761F012960C93129713961C93AF
:103450003296CF01DF91CF911F910F910895009384
:103460009B0510939C05F4CF2115310551F04217AF
:10347000530738F0A901DB019A01BD01DF01F80112
:10348000C1CFEF01F9CF90939C0580939B05CDCFE1
:10349000FE01E20FF31F819391932250310939838A
:1034A0002883D7CF2091990530919A05232B41F499
:1034B0002091090130910A0130939A0520939905D2
:1034C00020910701309108012115310541F42DB7F4
:1034D0003EB740910B0150910C01241B350BE0913C
:1034E0009905F0919A05E217F307A0F42E1B3F0B04
:1034F0002817390778F0AC014E5F5F4F2417350766
:1035000048F04E0F5F1F50939A05409399058193A1
:1035100091939FCFF0E0E0E09CCFCF93DF930097B3
:10352000E9F0FC01329713821282A0919B05B091C1
:103530009C05ED0130E020E01097A1F4208131815D
:10354000820F931F2091990530919A05281739070A
:1035500009F061C0F0939A05E0939905DF91CF914E
:103560000895EA01CE17DF07E8F54A815B819E01E5
:1035700041155105B1F7E901FB83EA83499159915E
:10358000C40FD51FEC17FD0761F48081918102966D
:10359000840F951FE90199838883828193819B839E
:1035A0008A83F0E0E0E012968D919C91139700974A
:1035B000B9F52D913C911197CD010296820F931F81
:1035C0002091990530919A052817390739F63097D7
:1035D00051F510929C0510929B05B0939A05A0930B
:1035E0009905BCCFD383C28340815181840F951F3D
:1035F000C817D90761F44E5F5F4F88819981480FE2
:10360000591F518340838A819B8193838283211533
:10361000310509F0B0CFF0939C05E0939B059ECF58
:10362000FD01DC01C0CF13821282D7CFB0E0A0E051
:10363000ECE1FBE10C94BF188C01009751F4CB0135
:103640000E94F1198C01C801CDB7DEB7E0E10C94FE
:10365000DB18FC01E60FF71F9C0122503109E2172D
:10366000F30708F49DC0D901CD91DC911197C617DD
:10367000D70798F0C530D10530F3CE0104978617EF
:10368000970708F3C61BD70B2297C193D1936D936D
:103690007C93CF010E948D1AD6CF5B01AC1ABD0A74
:1036A0004C018C0E9D1EA0919B05B0919C05512C48
:1036B000412CF12CE12C109731F5809199059091D6
:1036C0009A058815990509F05CC04616570608F05A
:1036D00058C08091070190910801009741F48DB77F
:1036E0009EB740910B0150910C01841B950BE8177C
:1036F000F90708F055C0F0939A05E0939905F90190
:1037000071836083A0CF8D919C91119712966C90DC
:10371000129713967C901397A815B90559F56C016B
:1037200042E0C40ED11CCA14DB0420F1AC014A19DA
:103730005B09DA011296159780F0628273825183D9
:103740004083D9016D937C93E114F10471F0D701AA
:103750001396FC93EE93129776CF22968C0F9D1FB3
:10376000F90191838083F301EFCFF0939C05E093FF
:103770009B0569CF4816590608F42C017D01D30139
:103780009ACFCB010E94F1197C01009749F0AE015C
:10379000B8010E94DB1BC8010E948D1A870153CF1C
:1037A00010E000E050CF9111089581568A5108F43D
:1037B000805285580895FB01DC0102C001900D92F2
:1037C00041505040D8F70895FC018191861721F0AF
:1037D0008823D9F7992708953197CF010895FB01E0
:1037E000DC018D91019080190110D9F3990B089596
:1037F000FB01DC0101900D920020E1F70895FB012F
:10380000DC014150504030F08D910190801919F445
:103810000020B9F7881B990B0895FB01DC0141508A
:10382000504048F001900D920020C9F701C01D9250
:1038300041505040E0F7089510E0C0E8D0E004C0E7
:10384000FE010E94EB192196C138D107C9F7F894FF
:02385000FFCFA8
:10385200FFFFFFFFFFFFFF00009D0580000000004B
:10386200004C01AC00D90099010A01E800FC000DEE
:103872000A005A4F595F4649524D574152455F56C9
:10388200302E392E300050415553415F46494D008C
:10389200534552564F5F46494D004552524F3A5A90
:1038A2004F595F4D41585F534552564F535F4C49F4
:1038B2004D4954004F4B5F41425249525F4741527A
:1038C20052415F494E4943494F0043004F4B5F46C7
:1038D20045434841525F47415252415F494E494335
:1038E200494F004F4B5F534552564F5F484F004F71
:1038F2004B5F534552564F5F4148004F4B5F534514
:1039020052564F5F50415241444F00444953544133
:103912004E4349413A006E616E00696E66006F76F1
:1039220066004552524F3A4152475F554C545241FC
:1039320053534F4D0053455249414C5F5052494EEB
:10394200540022004552524F3A4152475F494E5667
:10395200414C49444F5F534F4D004F4B5F534F4DC6
:103962005F494E4943494F005041555341004F4B27
:103972005F50415553415F494E4943494F004F4BB8
:103982005F42454550004552524F3A4152475F49C6
:103992004E56414C49444F5F4449474954414C5F5C
:1039A20057524954450048494748004C4F57004533
:1039B20052524F3A504152414D4554524F535F4437
:1039C20049474954414C5F57524954455F494E5605
:1039D200414C49444F53004552524F3A4152475F7E
:1039E200494E56414C49444F5F50574D5F575249DB
:1039F2005445004F4B004552524F3A504152414DAF
:103A02004554524F535F50574D5F57524954455F8B
:103A1200494E56414C49444F53004552524F3A4148
:103A220052475F494E56414C49444F5F44494749CA
:103A320054414C5F5245414400494E50555400494F
:103A42004E5055545F50554C4C5550004552524FB4
:103A52003A4D4F444F5F494E56414C49444F004402
:103A620049474954414C5F56414C4F523A004552E6
:103A7200524F3A504152414D4554524F535F44497F
:103A8200474954414C5F524541445F494E56414C6F
:103A920049444F5300414E414C4F475F52454144C8
:103AA20000414E414C4F475F56414C4F523A004500
:103AB20052524F3A50494E4F5F414E414C4F474947
:103AC200434F5F494E56414C49444F004C45445F79
:103AD2005452455A45004552524F3A4152475F4966
:103AE2004E56414C49444F004147554152444100D2
:103AF2004F4B5F414755415244415F494E4943490B
:103B02004F00414755415244415F4D53004F4B5F77
:103B1200414755415244415F4D535F494E494349E4
:103B22004F005A4F59004649524D574152453A5A51
:103B32004F595F554E4F3A76302E392E300045524E
:103B4200524F3A434F4D414E444F5F4E414F5F52A9
:0C3B520045434F4E48454349444F000096
:00000001FF
